{
  "_format": "hh-sol-artifact-1",
  "contractName": "BigBoyToken",
  "sourceName": "contracts/BigBoyToken.sol",
  "abi": [
    {
      "inputs": [],
      "stateMutability": "nonpayable",
      "type": "constructor"
    },
    {
      "anonymous": false,
      "inputs": [
        {
          "indexed": true,
          "internalType": "address",
          "name": "owner",
          "type": "address"
        },
        {
          "indexed": true,
          "internalType": "address",
          "name": "spender",
          "type": "address"
        },
        {
          "indexed": false,
          "internalType": "uint256",
          "name": "value",
          "type": "uint256"
        }
      ],
      "name": "Approval",
      "type": "event"
    },
    {
      "anonymous": false,
      "inputs": [
        {
          "indexed": true,
          "internalType": "address",
          "name": "previousOwner",
          "type": "address"
        },
        {
          "indexed": true,
          "internalType": "address",
          "name": "newOwner",
          "type": "address"
        }
      ],
      "name": "OwnershipTransferred",
      "type": "event"
    },
    {
      "anonymous": false,
      "inputs": [
        {
          "indexed": false,
          "internalType": "uint256",
          "name": "id",
          "type": "uint256"
        }
      ],
      "name": "Snapshot",
      "type": "event"
    },
    {
      "anonymous": false,
      "inputs": [
        {
          "indexed": true,
          "internalType": "address",
          "name": "from",
          "type": "address"
        },
        {
          "indexed": true,
          "internalType": "address",
          "name": "to",
          "type": "address"
        },
        {
          "indexed": false,
          "internalType": "uint256",
          "name": "value",
          "type": "uint256"
        }
      ],
      "name": "Transfer",
      "type": "event"
    },
    {
      "inputs": [],
      "name": "DOMAIN_SEPARATOR",
      "outputs": [
        {
          "internalType": "bytes32",
          "name": "",
          "type": "bytes32"
        }
      ],
      "stateMutability": "view",
      "type": "function"
    },
    {
      "inputs": [
        {
          "internalType": "address",
          "name": "owner",
          "type": "address"
        },
        {
          "internalType": "address",
          "name": "spender",
          "type": "address"
        }
      ],
      "name": "allowance",
      "outputs": [
        {
          "internalType": "uint256",
          "name": "",
          "type": "uint256"
        }
      ],
      "stateMutability": "view",
      "type": "function"
    },
    {
      "inputs": [
        {
          "internalType": "address",
          "name": "spender",
          "type": "address"
        },
        {
          "internalType": "uint256",
          "name": "amount",
          "type": "uint256"
        }
      ],
      "name": "approve",
      "outputs": [
        {
          "internalType": "bool",
          "name": "",
          "type": "bool"
        }
      ],
      "stateMutability": "nonpayable",
      "type": "function"
    },
    {
      "inputs": [
        {
          "internalType": "address",
          "name": "account",
          "type": "address"
        }
      ],
      "name": "balanceOf",
      "outputs": [
        {
          "internalType": "uint256",
          "name": "",
          "type": "uint256"
        }
      ],
      "stateMutability": "view",
      "type": "function"
    },
    {
      "inputs": [
        {
          "internalType": "address",
          "name": "account",
          "type": "address"
        },
        {
          "internalType": "uint256",
          "name": "snapshotId",
          "type": "uint256"
        }
      ],
      "name": "balanceOfAt",
      "outputs": [
        {
          "internalType": "uint256",
          "name": "",
          "type": "uint256"
        }
      ],
      "stateMutability": "view",
      "type": "function"
    },
    {
      "inputs": [
        {
          "internalType": "uint256",
          "name": "amount",
          "type": "uint256"
        }
      ],
      "name": "burn",
      "outputs": [],
      "stateMutability": "nonpayable",
      "type": "function"
    },
    {
      "inputs": [
        {
          "internalType": "address",
          "name": "account",
          "type": "address"
        },
        {
          "internalType": "uint256",
          "name": "amount",
          "type": "uint256"
        }
      ],
      "name": "burnFrom",
      "outputs": [],
      "stateMutability": "nonpayable",
      "type": "function"
    },
    {
      "inputs": [],
      "name": "decimals",
      "outputs": [
        {
          "internalType": "uint8",
          "name": "",
          "type": "uint8"
        }
      ],
      "stateMutability": "view",
      "type": "function"
    },
    {
      "inputs": [
        {
          "internalType": "address",
          "name": "spender",
          "type": "address"
        },
        {
          "internalType": "uint256",
          "name": "subtractedValue",
          "type": "uint256"
        }
      ],
      "name": "decreaseAllowance",
      "outputs": [
        {
          "internalType": "bool",
          "name": "",
          "type": "bool"
        }
      ],
      "stateMutability": "nonpayable",
      "type": "function"
    },
    {
      "inputs": [
        {
          "internalType": "address",
          "name": "spender",
          "type": "address"
        },
        {
          "internalType": "uint256",
          "name": "addedValue",
          "type": "uint256"
        }
      ],
      "name": "increaseAllowance",
      "outputs": [
        {
          "internalType": "bool",
          "name": "",
          "type": "bool"
        }
      ],
      "stateMutability": "nonpayable",
      "type": "function"
    },
    {
      "inputs": [
        {
          "internalType": "address",
          "name": "to",
          "type": "address"
        },
        {
          "internalType": "uint256",
          "name": "amount",
          "type": "uint256"
        }
      ],
      "name": "mint",
      "outputs": [],
      "stateMutability": "nonpayable",
      "type": "function"
    },
    {
      "inputs": [],
      "name": "name",
      "outputs": [
        {
          "internalType": "string",
          "name": "",
          "type": "string"
        }
      ],
      "stateMutability": "view",
      "type": "function"
    },
    {
      "inputs": [
        {
          "internalType": "address",
          "name": "owner",
          "type": "address"
        }
      ],
      "name": "nonces",
      "outputs": [
        {
          "internalType": "uint256",
          "name": "",
          "type": "uint256"
        }
      ],
      "stateMutability": "view",
      "type": "function"
    },
    {
      "inputs": [],
      "name": "owner",
      "outputs": [
        {
          "internalType": "address",
          "name": "",
          "type": "address"
        }
      ],
      "stateMutability": "view",
      "type": "function"
    },
    {
      "inputs": [
        {
          "internalType": "address",
          "name": "owner",
          "type": "address"
        },
        {
          "internalType": "address",
          "name": "spender",
          "type": "address"
        },
        {
          "internalType": "uint256",
          "name": "value",
          "type": "uint256"
        },
        {
          "internalType": "uint256",
          "name": "deadline",
          "type": "uint256"
        },
        {
          "internalType": "uint8",
          "name": "v",
          "type": "uint8"
        },
        {
          "internalType": "bytes32",
          "name": "r",
          "type": "bytes32"
        },
        {
          "internalType": "bytes32",
          "name": "s",
          "type": "bytes32"
        }
      ],
      "name": "permit",
      "outputs": [],
      "stateMutability": "nonpayable",
      "type": "function"
    },
    {
      "inputs": [],
      "name": "renounceOwnership",
      "outputs": [],
      "stateMutability": "nonpayable",
      "type": "function"
    },
    {
      "inputs": [],
      "name": "snapshot",
      "outputs": [],
      "stateMutability": "nonpayable",
      "type": "function"
    },
    {
      "inputs": [],
      "name": "symbol",
      "outputs": [
        {
          "internalType": "string",
          "name": "",
          "type": "string"
        }
      ],
      "stateMutability": "view",
      "type": "function"
    },
    {
      "inputs": [],
      "name": "totalSupply",
      "outputs": [
        {
          "internalType": "uint256",
          "name": "",
          "type": "uint256"
        }
      ],
      "stateMutability": "view",
      "type": "function"
    },
    {
      "inputs": [
        {
          "internalType": "uint256",
          "name": "snapshotId",
          "type": "uint256"
        }
      ],
      "name": "totalSupplyAt",
      "outputs": [
        {
          "internalType": "uint256",
          "name": "",
          "type": "uint256"
        }
      ],
      "stateMutability": "view",
      "type": "function"
    },
    {
      "inputs": [
        {
          "internalType": "address",
          "name": "to",
          "type": "address"
        },
        {
          "internalType": "uint256",
          "name": "amount",
          "type": "uint256"
        }
      ],
      "name": "transfer",
      "outputs": [
        {
          "internalType": "bool",
          "name": "",
          "type": "bool"
        }
      ],
      "stateMutability": "nonpayable",
      "type": "function"
    },
    {
      "inputs": [
        {
          "internalType": "address",
          "name": "from",
          "type": "address"
        },
        {
          "internalType": "address",
          "name": "to",
          "type": "address"
        },
        {
          "internalType": "uint256",
          "name": "amount",
          "type": "uint256"
        }
      ],
      "name": "transferFrom",
      "outputs": [
        {
          "internalType": "bool",
          "name": "",
          "type": "bool"
        }
      ],
      "stateMutability": "nonpayable",
      "type": "function"
    },
    {
      "inputs": [
        {
          "internalType": "address",
          "name": "newOwner",
          "type": "address"
        }
      ],
      "name": "transferOwnership",
      "outputs": [],
      "stateMutability": "nonpayable",
      "type": "function"
    }
  ],
  "bytecode": "0x6101606040527f6e71edae12b1b97f4d1f60370fef10105fa2faae0126114a169c64845d6126c9610140908152503480156200003a57600080fd5b506040518060400160405280600b81526020017f426967426f79546f6b656e000000000000000000000000000000000000000000815250806040518060400160405280600181526020017f31000000000000000000000000000000000000000000000000000000000000008152506040518060400160405280600b81526020017f426967426f79546f6b656e0000000000000000000000000000000000000000008152506040518060400160405280600381526020017f424254000000000000000000000000000000000000000000000000000000000081525081600390805190602001906200012c9291906200081a565b508060049080519060200190620001459291906200081a565b505050620001686200015c6200026360201b60201c565b6200026b60201b60201c565b60008280519060200120905060008280519060200120905060007f8b73c3c69bb8fe3d512ecc4cf759cc79239f7b179b0ffacaa9a75d522b39400f90508260e081815250508161010081815250504660a08181525050620001d18184846200033160201b60201c565b608081815250503073ffffffffffffffffffffffffffffffffffffffff1660c08173ffffffffffffffffffffffffffffffffffffffff1660601b815250508061012081815250505050505050506200025d33620002336200036d60201b60201c565b600a62000241919062000a89565b620f424062000251919062000bc6565b6200037660201b60201c565b62000d81565b600033905090565b6000600960009054906101000a900473ffffffffffffffffffffffffffffffffffffffff16905081600960006101000a81548173ffffffffffffffffffffffffffffffffffffffff021916908373ffffffffffffffffffffffffffffffffffffffff1602179055508173ffffffffffffffffffffffffffffffffffffffff168173ffffffffffffffffffffffffffffffffffffffff167f8be0079c531659141344cd1fd0a4f28419497f9722a3daafe3b4186f6b6457e060405160405180910390a35050565b600083838346306040516020016200034e95949392919062000924565b6040516020818303038152906040528051906020012090509392505050565b60006012905090565b600073ffffffffffffffffffffffffffffffffffffffff168273ffffffffffffffffffffffffffffffffffffffff161415620003e9576040517f08c379a0000000000000000000000000000000000000000000000000000000008152600401620003e09062000981565b60405180910390fd5b620003fd60008383620004ef60201b60201c565b8060026000828254620004119190620009d1565b92505081905550806000808473ffffffffffffffffffffffffffffffffffffffff1673ffffffffffffffffffffffffffffffffffffffff1681526020019081526020016000206000828254620004689190620009d1565b925050819055508173ffffffffffffffffffffffffffffffffffffffff16600073ffffffffffffffffffffffffffffffffffffffff167fddf252ad1be2c89b69c2b068fc378daa952ba7f163c4a11628f55a4df523b3ef83604051620004cf9190620009a3565b60405180910390a3620004eb600083836200050c60201b60201c565b5050565b620005078383836200051160201b62000dc61760201c565b505050565b505050565b620005298383836200060c60201b62000e801760201c565b600073ffffffffffffffffffffffffffffffffffffffff168373ffffffffffffffffffffffffffffffffffffffff161415620005865762000570826200061160201b60201c565b620005806200067460201b60201c565b62000607565b600073ffffffffffffffffffffffffffffffffffffffff168273ffffffffffffffffffffffffffffffffffffffff161415620005e357620005cd836200061160201b60201c565b620005dd6200067460201b60201c565b62000606565b620005f4836200061160201b60201c565b62000605826200061160201b60201c565b5b5b505050565b505050565b62000671600560008373ffffffffffffffffffffffffffffffffffffffff1673ffffffffffffffffffffffffffffffffffffffff16815260200190815260200160002062000665836200069860201b60201c565b620006e060201b60201c565b50565b6200069660066200068a6200076c60201b60201c565b620006e060201b60201c565b565b60008060008373ffffffffffffffffffffffffffffffffffffffff1673ffffffffffffffffffffffffffffffffffffffff168152602001908152602001600020549050919050565b6000620006f26200077660201b60201c565b90508062000709846000016200079460201b60201c565b1015620007675782600001819080600181540180825580915050600190039060005260206000200160009091909190915055826001018290806001815401808255809150506001900390600052602060002001600090919091909150555b505050565b6000600254905090565b60006200078f60086200080c60201b62000e851760201c565b905090565b60008082805490501415620007ad576000905062000807565b8160018380549050620007c1919062000c27565b81548110620007f9577f4e487b7100000000000000000000000000000000000000000000000000000000600052603260045260246000fd5b906000526020600020015490505b919050565b600081600001549050919050565b828054620008289062000cb7565b90600052602060002090601f0160209004810192826200084c576000855562000898565b82601f106200086757805160ff191683800117855562000898565b8280016001018555821562000898579182015b82811115620008975782518255916020019190600101906200087a565b5b509050620008a79190620008ab565b5090565b5b80821115620008c6576000816000905550600101620008ac565b5090565b620008d58162000c62565b82525050565b620008e68162000c76565b82525050565b6000620008fb601f83620009c0565b9150620009088262000d58565b602082019050919050565b6200091e8162000ca0565b82525050565b600060a0820190506200093b6000830188620008db565b6200094a6020830187620008db565b620009596040830186620008db565b62000968606083018562000913565b620009776080830184620008ca565b9695505050505050565b600060208201905081810360008301526200099c81620008ec565b9050919050565b6000602082019050620009ba600083018462000913565b92915050565b600082825260208201905092915050565b6000620009de8262000ca0565b9150620009eb8362000ca0565b9250827fffffffffffffffffffffffffffffffffffffffffffffffffffffffffffffffff0382111562000a235762000a2262000ced565b5b828201905092915050565b6000808291508390505b600185111562000a805780860481111562000a585762000a5762000ced565b5b600185161562000a685780820291505b808102905062000a788562000d4b565b945062000a38565b94509492505050565b600062000a968262000ca0565b915062000aa38362000caa565b925062000ad27fffffffffffffffffffffffffffffffffffffffffffffffffffffffffffffffff848462000ada565b905092915050565b60008262000aec576001905062000bbf565b8162000afc576000905062000bbf565b816001811462000b15576002811462000b205762000b56565b600191505062000bbf565b60ff84111562000b355762000b3462000ced565b5b8360020a91508482111562000b4f5762000b4e62000ced565b5b5062000bbf565b5060208310610133831016604e8410600b841016171562000b905782820a90508381111562000b8a5762000b8962000ced565b5b62000bbf565b62000b9f848484600162000a2e565b9250905081840481111562000bb95762000bb862000ced565b5b81810290505b9392505050565b600062000bd38262000ca0565b915062000be08362000ca0565b9250817fffffffffffffffffffffffffffffffffffffffffffffffffffffffffffffffff048311821515161562000c1c5762000c1b62000ced565b5b828202905092915050565b600062000c348262000ca0565b915062000c418362000ca0565b92508282101562000c575762000c5662000ced565b5b828203905092915050565b600062000c6f8262000c80565b9050919050565b6000819050919050565b600073ffffffffffffffffffffffffffffffffffffffff82169050919050565b6000819050919050565b600060ff82169050919050565b6000600282049050600182168062000cd057607f821691505b6020821081141562000ce75762000ce662000d1c565b5b50919050565b7f4e487b7100000000000000000000000000000000000000000000000000000000600052601160045260246000fd5b7f4e487b7100000000000000000000000000000000000000000000000000000000600052602260045260246000fd5b60008160011c9050919050565b7f45524332303a206d696e7420746f20746865207a65726f206164647265737300600082015250565b60805160a05160c05160601c60e05161010051610120516101405161340462000ddf6000396000610b4c01526000611421015260006114630152600061144201526000611377015260006113cd015260006113f601526134046000f3fe608060405234801561001057600080fd5b506004361061014d5760003560e01c8063715018a6116100c3578063981b24d01161007c578063981b24d01461038e578063a457c2d7146103be578063a9059cbb146103ee578063d505accf1461041e578063dd62ed3e1461043a578063f2fde38b1461046a5761014d565b8063715018a6146102f257806379cc6790146102fc5780637ecebe00146103185780638da5cb5b1461034857806395d89b41146103665780639711715a146103845761014d565b80633644e515116101155780633644e5151461020c578063395093511461022a57806340c10f191461025a57806342966c68146102765780634ee2cd7e1461029257806370a08231146102c25761014d565b806306fdde0314610152578063095ea7b31461017057806318160ddd146101a057806323b872dd146101be578063313ce567146101ee575b600080fd5b61015a610486565b604051610167919061294d565b60405180910390f35b61018a600480360381019061018591906123ed565b610518565b604051610197919061281e565b60405180910390f35b6101a861053b565b6040516101b59190612bef565b60405180910390f35b6101d860048036038101906101d39190612300565b610545565b6040516101e5919061281e565b60405180910390f35b6101f6610574565b6040516102039190612c0a565b60405180910390f35b61021461057d565b6040516102219190612839565b60405180910390f35b610244600480360381019061023f91906123ed565b61058c565b604051610251919061281e565b60405180910390f35b610274600480360381019061026f91906123ed565b610636565b005b610290600480360381019061028b9190612429565b6106c0565b005b6102ac60048036038101906102a791906123ed565b6106d4565b6040516102b99190612bef565b60405180910390f35b6102dc60048036038101906102d7919061229b565b610744565b6040516102e99190612bef565b60405180910390f35b6102fa61078c565b005b610316600480360381019061031191906123ed565b610814565b005b610332600480360381019061032d919061229b565b610834565b60405161033f9190612bef565b60405180910390f35b610350610884565b60405161035d9190612803565b60405180910390f35b61036e6108ae565b60405161037b919061294d565b60405180910390f35b61038c610940565b005b6103a860048036038101906103a39190612429565b6109c7565b6040516103b59190612bef565b60405180910390f35b6103d860048036038101906103d391906123ed565b6109f8565b6040516103e5919061281e565b60405180910390f35b610408600480360381019061040391906123ed565b610ae2565b604051610415919061281e565b60405180910390f35b6104386004803603810190610433919061234f565b610b05565b005b610454600480360381019061044f91906122c4565b610c47565b6040516104619190612bef565b60405180910390f35b610484600480360381019061047f919061229b565b610cce565b005b60606003805461049590612d99565b80601f01602080910402602001604051908101604052809291908181526020018280546104c190612d99565b801561050e5780601f106104e35761010080835404028352916020019161050e565b820191906000526020600020905b8154815290600101906020018083116104f157829003601f168201915b5050505050905090565b600080610523610e93565b9050610530818585610e9b565b600191505092915050565b6000600254905090565b600080610550610e93565b905061055d858285611066565b6105688585856110f2565b60019150509392505050565b60006012905090565b6000610587611373565b905090565b600080610597610e93565b905061062b818585600160008673ffffffffffffffffffffffffffffffffffffffff1673ffffffffffffffffffffffffffffffffffffffff16815260200190815260200160002060008973ffffffffffffffffffffffffffffffffffffffff1673ffffffffffffffffffffffffffffffffffffffff168152602001908152602001600020546106269190612c4c565b610e9b565b600191505092915050565b61063e610e93565b73ffffffffffffffffffffffffffffffffffffffff1661065c610884565b73ffffffffffffffffffffffffffffffffffffffff16146106b2576040517f08c379a00000000000000000000000000000000000000000000000000000000081526004016106a990612b0f565b60405180910390fd5b6106bc828261148d565b5050565b6106d16106cb610e93565b826115ed565b50565b600080600061072184600560008873ffffffffffffffffffffffffffffffffffffffff1673ffffffffffffffffffffffffffffffffffffffff1681526020019081526020016000206117c4565b91509150816107385761073385610744565b61073a565b805b9250505092915050565b60008060008373ffffffffffffffffffffffffffffffffffffffff1673ffffffffffffffffffffffffffffffffffffffff168152602001908152602001600020549050919050565b610794610e93565b73ffffffffffffffffffffffffffffffffffffffff166107b2610884565b73ffffffffffffffffffffffffffffffffffffffff1614610808576040517f08c379a00000000000000000000000000000000000000000000000000000000081526004016107ff90612b0f565b60405180910390fd5b61081260006118e0565b565b61082682610820610e93565b83611066565b61083082826115ed565b5050565b600061087d600a60008473ffffffffffffffffffffffffffffffffffffffff1673ffffffffffffffffffffffffffffffffffffffff168152602001908152602001600020610e85565b9050919050565b6000600960009054906101000a900473ffffffffffffffffffffffffffffffffffffffff16905090565b6060600480546108bd90612d99565b80601f01602080910402602001604051908101604052809291908181526020018280546108e990612d99565b80156109365780601f1061090b57610100808354040283529160200191610936565b820191906000526020600020905b81548152906001019060200180831161091957829003601f168201915b5050505050905090565b610948610e93565b73ffffffffffffffffffffffffffffffffffffffff16610966610884565b73ffffffffffffffffffffffffffffffffffffffff16146109bc576040517f08c379a00000000000000000000000000000000000000000000000000000000081526004016109b390612b0f565b60405180910390fd5b6109c46119a6565b50565b60008060006109d78460066117c4565b91509150816109ed576109e861053b565b6109ef565b805b92505050919050565b600080610a03610e93565b90506000600160008373ffffffffffffffffffffffffffffffffffffffff1673ffffffffffffffffffffffffffffffffffffffff16815260200190815260200160002060008673ffffffffffffffffffffffffffffffffffffffff1673ffffffffffffffffffffffffffffffffffffffff16815260200190815260200160002054905083811015610ac9576040517f08c379a0000000000000000000000000000000000000000000000000000000008152600401610ac090612baf565b60405180910390fd5b610ad68286868403610e9b565b60019250505092915050565b600080610aed610e93565b9050610afa8185856110f2565b600191505092915050565b83421115610b48576040517f08c379a0000000000000000000000000000000000000000000000000000000008152600401610b3f90612a6f565b60405180910390fd5b60007f0000000000000000000000000000000000000000000000000000000000000000888888610b778c6119fc565b89604051602001610b8d96959493929190612854565b6040516020818303038152906040528051906020012090506000610bb082611a5a565b90506000610bc082878787611a74565b90508973ffffffffffffffffffffffffffffffffffffffff168173ffffffffffffffffffffffffffffffffffffffff1614610c30576040517f08c379a0000000000000000000000000000000000000000000000000000000008152600401610c2790612aef565b60405180910390fd5b610c3b8a8a8a610e9b565b50505050505050505050565b6000600160008473ffffffffffffffffffffffffffffffffffffffff1673ffffffffffffffffffffffffffffffffffffffff16815260200190815260200160002060008373ffffffffffffffffffffffffffffffffffffffff1673ffffffffffffffffffffffffffffffffffffffff16815260200190815260200160002054905092915050565b610cd6610e93565b73ffffffffffffffffffffffffffffffffffffffff16610cf4610884565b73ffffffffffffffffffffffffffffffffffffffff1614610d4a576040517f08c379a0000000000000000000000000000000000000000000000000000000008152600401610d4190612b0f565b60405180910390fd5b600073ffffffffffffffffffffffffffffffffffffffff168173ffffffffffffffffffffffffffffffffffffffff161415610dba576040517f08c379a0000000000000000000000000000000000000000000000000000000008152600401610db190612a0f565b60405180910390fd5b610dc3816118e0565b50565b610dd1838383610e80565b600073ffffffffffffffffffffffffffffffffffffffff168373ffffffffffffffffffffffffffffffffffffffff161415610e1c57610e0f82611a9f565b610e17611af2565b610e7b565b600073ffffffffffffffffffffffffffffffffffffffff168273ffffffffffffffffffffffffffffffffffffffff161415610e6757610e5a83611a9f565b610e62611af2565b610e7a565b610e7083611a9f565b610e7982611a9f565b5b5b505050565b505050565b600081600001549050919050565b600033905090565b600073ffffffffffffffffffffffffffffffffffffffff168373ffffffffffffffffffffffffffffffffffffffff161415610f0b576040517f08c379a0000000000000000000000000000000000000000000000000000000008152600401610f0290612b6f565b60405180910390fd5b600073ffffffffffffffffffffffffffffffffffffffff168273ffffffffffffffffffffffffffffffffffffffff161415610f7b576040517f08c379a0000000000000000000000000000000000000000000000000000000008152600401610f7290612a2f565b60405180910390fd5b80600160008573ffffffffffffffffffffffffffffffffffffffff1673ffffffffffffffffffffffffffffffffffffffff16815260200190815260200160002060008473ffffffffffffffffffffffffffffffffffffffff1673ffffffffffffffffffffffffffffffffffffffff168152602001908152602001600020819055508173ffffffffffffffffffffffffffffffffffffffff168373ffffffffffffffffffffffffffffffffffffffff167f8c5be1e5ebec7d5bd14f71427d1e84f3dd0314c0f7b2291e5b200ac8c7c3b925836040516110599190612bef565b60405180910390a3505050565b60006110728484610c47565b90507fffffffffffffffffffffffffffffffffffffffffffffffffffffffffffffffff81146110ec57818110156110de576040517f08c379a00000000000000000000000000000000000000000000000000000000081526004016110d590612a4f565b60405180910390fd5b6110eb8484848403610e9b565b5b50505050565b600073ffffffffffffffffffffffffffffffffffffffff168373ffffffffffffffffffffffffffffffffffffffff161415611162576040517f08c379a000000000000000000000000000000000000000000000000000000000815260040161115990612b4f565b60405180910390fd5b600073ffffffffffffffffffffffffffffffffffffffff168273ffffffffffffffffffffffffffffffffffffffff1614156111d2576040517f08c379a00000000000000000000000000000000000000000000000000000000081526004016111c9906129af565b60405180910390fd5b6111dd838383611b06565b60008060008573ffffffffffffffffffffffffffffffffffffffff1673ffffffffffffffffffffffffffffffffffffffff16815260200190815260200160002054905081811015611263576040517f08c379a000000000000000000000000000000000000000000000000000000000815260040161125a90612a8f565b60405180910390fd5b8181036000808673ffffffffffffffffffffffffffffffffffffffff1673ffffffffffffffffffffffffffffffffffffffff16815260200190815260200160002081905550816000808573ffffffffffffffffffffffffffffffffffffffff1673ffffffffffffffffffffffffffffffffffffffff16815260200190815260200160002060008282546112f69190612c4c565b925050819055508273ffffffffffffffffffffffffffffffffffffffff168473ffffffffffffffffffffffffffffffffffffffff167fddf252ad1be2c89b69c2b068fc378daa952ba7f163c4a11628f55a4df523b3ef8460405161135a9190612bef565b60405180910390a361136d848484611b16565b50505050565b60007f000000000000000000000000000000000000000000000000000000000000000073ffffffffffffffffffffffffffffffffffffffff163073ffffffffffffffffffffffffffffffffffffffff161480156113ef57507f000000000000000000000000000000000000000000000000000000000000000046145b1561141c577f0000000000000000000000000000000000000000000000000000000000000000905061148a565b6114877f00000000000000000000000000000000000000000000000000000000000000007f00000000000000000000000000000000000000000000000000000000000000007f0000000000000000000000000000000000000000000000000000000000000000611b1b565b90505b90565b600073ffffffffffffffffffffffffffffffffffffffff168273ffffffffffffffffffffffffffffffffffffffff1614156114fd576040517f08c379a00000000000000000000000000000000000000000000000000000000081526004016114f490612bcf565b60405180910390fd5b61150960008383611b06565b806002600082825461151b9190612c4c565b92505081905550806000808473ffffffffffffffffffffffffffffffffffffffff1673ffffffffffffffffffffffffffffffffffffffff16815260200190815260200160002060008282546115709190612c4c565b925050819055508173ffffffffffffffffffffffffffffffffffffffff16600073ffffffffffffffffffffffffffffffffffffffff167fddf252ad1be2c89b69c2b068fc378daa952ba7f163c4a11628f55a4df523b3ef836040516115d59190612bef565b60405180910390a36115e960008383611b16565b5050565b600073ffffffffffffffffffffffffffffffffffffffff168273ffffffffffffffffffffffffffffffffffffffff16141561165d576040517f08c379a000000000000000000000000000000000000000000000000000000000815260040161165490612b2f565b60405180910390fd5b61166982600083611b06565b60008060008473ffffffffffffffffffffffffffffffffffffffff1673ffffffffffffffffffffffffffffffffffffffff168152602001908152602001600020549050818110156116ef576040517f08c379a00000000000000000000000000000000000000000000000000000000081526004016116e6906129cf565b60405180910390fd5b8181036000808573ffffffffffffffffffffffffffffffffffffffff1673ffffffffffffffffffffffffffffffffffffffff1681526020019081526020016000208190555081600260008282546117469190612cd3565b92505081905550600073ffffffffffffffffffffffffffffffffffffffff168373ffffffffffffffffffffffffffffffffffffffff167fddf252ad1be2c89b69c2b068fc378daa952ba7f163c4a11628f55a4df523b3ef846040516117ab9190612bef565b60405180910390a36117bf83600084611b16565b505050565b6000806000841161180a576040517f08c379a000000000000000000000000000000000000000000000000000000000815260040161180190612b8f565b60405180910390fd5b611812611b55565b841115611854576040517f08c379a000000000000000000000000000000000000000000000000000000000815260040161184b9061298f565b60405180910390fd5b600061186c8585600001611b6690919063ffffffff16565b9050836000018054905081141561188a5760008092509250506118d9565b60018460010182815481106118c8577f4e487b7100000000000000000000000000000000000000000000000000000000600052603260045260246000fd5b906000526020600020015492509250505b9250929050565b6000600960009054906101000a900473ffffffffffffffffffffffffffffffffffffffff16905081600960006101000a81548173ffffffffffffffffffffffffffffffffffffffff021916908373ffffffffffffffffffffffffffffffffffffffff1602179055508173ffffffffffffffffffffffffffffffffffffffff168173ffffffffffffffffffffffffffffffffffffffff167f8be0079c531659141344cd1fd0a4f28419497f9722a3daafe3b4186f6b6457e060405160405180910390a35050565b60006119b26008611c8c565b60006119bc611b55565b90507f8030e83b04d87bef53480e26263266d6ca66863aa8506aca6f2559d18aa1cb67816040516119ed9190612bef565b60405180910390a18091505090565b600080600a60008473ffffffffffffffffffffffffffffffffffffffff1673ffffffffffffffffffffffffffffffffffffffff1681526020019081526020016000209050611a4981610e85565b9150611a5481611c8c565b50919050565b6000611a6d611a67611373565b83611ca2565b9050919050565b6000806000611a8587878787611cd5565b91509150611a9281611de2565b8192505050949350505050565b611aef600560008373ffffffffffffffffffffffffffffffffffffffff1673ffffffffffffffffffffffffffffffffffffffff168152602001908152602001600020611aea83610744565b612133565b50565b611b046006611aff61053b565b612133565b565b611b11838383610dc6565b505050565b505050565b60008383834630604051602001611b369594939291906128b5565b6040516020818303038152906040528051906020012090509392505050565b6000611b616008610e85565b905090565b60008083805490501415611b7d5760009050611c86565b600080848054905090505b80821015611c07576000611b9c83836121ae565b905084868281548110611bd8577f4e487b7100000000000000000000000000000000000000000000000000000000600052603260045260246000fd5b90600052602060002001541115611bf157809150611c01565b600181611bfe9190612c4c565b92505b50611b88565b600082118015611c6557508385600184611c219190612cd3565b81548110611c58577f4e487b7100000000000000000000000000000000000000000000000000000000600052603260045260246000fd5b9060005260206000200154145b15611c8057600182611c779190612cd3565b92505050611c86565b81925050505b92915050565b6001816000016000828254019250508190555050565b60008282604051602001611cb79291906127cc565b60405160208183030381529060405280519060200120905092915050565b6000807f7fffffffffffffffffffffffffffffff5d576e7357a4501ddfe92f46681b20a08360001c1115611d10576000600391509150611dd9565b601b8560ff1614158015611d285750601c8560ff1614155b15611d3a576000600491509150611dd9565b600060018787878760405160008152602001604052604051611d5f9493929190612908565b6020604051602081039080840390855afa158015611d81573d6000803e3d6000fd5b505050602060405103519050600073ffffffffffffffffffffffffffffffffffffffff168173ffffffffffffffffffffffffffffffffffffffff161415611dd057600060019250925050611dd9565b80600092509250505b94509492505050565b60006004811115611e1c577f4e487b7100000000000000000000000000000000000000000000000000000000600052602160045260246000fd5b816004811115611e55577f4e487b7100000000000000000000000000000000000000000000000000000000600052602160045260246000fd5b1415611e6057612130565b60016004811115611e9a577f4e487b7100000000000000000000000000000000000000000000000000000000600052602160045260246000fd5b816004811115611ed3577f4e487b7100000000000000000000000000000000000000000000000000000000600052602160045260246000fd5b1415611f14576040517f08c379a0000000000000000000000000000000000000000000000000000000008152600401611f0b9061296f565b60405180910390fd5b60026004811115611f4e577f4e487b7100000000000000000000000000000000000000000000000000000000600052602160045260246000fd5b816004811115611f87577f4e487b7100000000000000000000000000000000000000000000000000000000600052602160045260246000fd5b1415611fc8576040517f08c379a0000000000000000000000000000000000000000000000000000000008152600401611fbf906129ef565b60405180910390fd5b60036004811115612002577f4e487b7100000000000000000000000000000000000000000000000000000000600052602160045260246000fd5b81600481111561203b577f4e487b7100000000000000000000000000000000000000000000000000000000600052602160045260246000fd5b141561207c576040517f08c379a000000000000000000000000000000000000000000000000000000000815260040161207390612aaf565b60405180910390fd5b6004808111156120b5577f4e487b7100000000000000000000000000000000000000000000000000000000600052602160045260246000fd5b8160048111156120ee577f4e487b7100000000000000000000000000000000000000000000000000000000600052602160045260246000fd5b141561212f576040517f08c379a000000000000000000000000000000000000000000000000000000000815260040161212690612acf565b60405180910390fd5b5b50565b600061213d611b55565b90508061214c846000016121d4565b10156121a95782600001819080600181540180825580915050600190039060005260206000200160009091909190915055826001018290806001815401808255809150506001900390600052602060002001600090919091909150555b505050565b600060028284186121bf9190612ca2565b8284166121cc9190612c4c565b905092915050565b600080828054905014156121eb5760009050612242565b81600183805490506121fd9190612cd3565b81548110612234577f4e487b7100000000000000000000000000000000000000000000000000000000600052603260045260246000fd5b906000526020600020015490505b919050565b60008135905061225681613372565b92915050565b60008135905061226b81613389565b92915050565b600081359050612280816133a0565b92915050565b600081359050612295816133b7565b92915050565b6000602082840312156122ad57600080fd5b60006122bb84828501612247565b91505092915050565b600080604083850312156122d757600080fd5b60006122e585828601612247565b92505060206122f685828601612247565b9150509250929050565b60008060006060848603121561231557600080fd5b600061232386828701612247565b935050602061233486828701612247565b925050604061234586828701612271565b9150509250925092565b600080600080600080600060e0888a03121561236a57600080fd5b60006123788a828b01612247565b97505060206123898a828b01612247565b965050604061239a8a828b01612271565b95505060606123ab8a828b01612271565b94505060806123bc8a828b01612286565b93505060a06123cd8a828b0161225c565b92505060c06123de8a828b0161225c565b91505092959891949750929550565b6000806040838503121561240057600080fd5b600061240e85828601612247565b925050602061241f85828601612271565b9150509250929050565b60006020828403121561243b57600080fd5b600061244984828501612271565b91505092915050565b61245b81612d07565b82525050565b61246a81612d19565b82525050565b61247981612d25565b82525050565b61249061248b82612d25565b612dcb565b82525050565b60006124a182612c25565b6124ab8185612c30565b93506124bb818560208601612d66565b6124c481612e62565b840191505092915050565b60006124dc601883612c30565b91506124e782612e73565b602082019050919050565b60006124ff601d83612c30565b915061250a82612e9c565b602082019050919050565b6000612522602383612c30565b915061252d82612ec5565b604082019050919050565b6000612545602283612c30565b915061255082612f14565b604082019050919050565b6000612568601f83612c30565b915061257382612f63565b602082019050919050565b600061258b602683612c30565b915061259682612f8c565b604082019050919050565b60006125ae602283612c30565b91506125b982612fdb565b604082019050919050565b60006125d1600283612c41565b91506125dc8261302a565b600282019050919050565b60006125f4601d83612c30565b91506125ff82613053565b602082019050919050565b6000612617601d83612c30565b91506126228261307c565b602082019050919050565b600061263a602683612c30565b9150612645826130a5565b604082019050919050565b600061265d602283612c30565b9150612668826130f4565b604082019050919050565b6000612680602283612c30565b915061268b82613143565b604082019050919050565b60006126a3601e83612c30565b91506126ae82613192565b602082019050919050565b60006126c6602083612c30565b91506126d1826131bb565b602082019050919050565b60006126e9602183612c30565b91506126f4826131e4565b604082019050919050565b600061270c602583612c30565b915061271782613233565b604082019050919050565b600061272f602483612c30565b915061273a82613282565b604082019050919050565b6000612752601683612c30565b915061275d826132d1565b602082019050919050565b6000612775602583612c30565b9150612780826132fa565b604082019050919050565b6000612798601f83612c30565b91506127a382613349565b602082019050919050565b6127b781612d4f565b82525050565b6127c681612d59565b82525050565b60006127d7826125c4565b91506127e3828561247f565b6020820191506127f3828461247f565b6020820191508190509392505050565b60006020820190506128186000830184612452565b92915050565b60006020820190506128336000830184612461565b92915050565b600060208201905061284e6000830184612470565b92915050565b600060c0820190506128696000830189612470565b6128766020830188612452565b6128836040830187612452565b61289060608301866127ae565b61289d60808301856127ae565b6128aa60a08301846127ae565b979650505050505050565b600060a0820190506128ca6000830188612470565b6128d76020830187612470565b6128e46040830186612470565b6128f160608301856127ae565b6128fe6080830184612452565b9695505050505050565b600060808201905061291d6000830187612470565b61292a60208301866127bd565b6129376040830185612470565b6129446060830184612470565b95945050505050565b600060208201905081810360008301526129678184612496565b905092915050565b60006020820190508181036000830152612988816124cf565b9050919050565b600060208201905081810360008301526129a8816124f2565b9050919050565b600060208201905081810360008301526129c881612515565b9050919050565b600060208201905081810360008301526129e881612538565b9050919050565b60006020820190508181036000830152612a088161255b565b9050919050565b60006020820190508181036000830152612a288161257e565b9050919050565b60006020820190508181036000830152612a48816125a1565b9050919050565b60006020820190508181036000830152612a68816125e7565b9050919050565b60006020820190508181036000830152612a888161260a565b9050919050565b60006020820190508181036000830152612aa88161262d565b9050919050565b60006020820190508181036000830152612ac881612650565b9050919050565b60006020820190508181036000830152612ae881612673565b9050919050565b60006020820190508181036000830152612b0881612696565b9050919050565b60006020820190508181036000830152612b28816126b9565b9050919050565b60006020820190508181036000830152612b48816126dc565b9050919050565b60006020820190508181036000830152612b68816126ff565b9050919050565b60006020820190508181036000830152612b8881612722565b9050919050565b60006020820190508181036000830152612ba881612745565b9050919050565b60006020820190508181036000830152612bc881612768565b9050919050565b60006020820190508181036000830152612be88161278b565b9050919050565b6000602082019050612c0460008301846127ae565b92915050565b6000602082019050612c1f60008301846127bd565b92915050565b600081519050919050565b600082825260208201905092915050565b600081905092915050565b6000612c5782612d4f565b9150612c6283612d4f565b9250827fffffffffffffffffffffffffffffffffffffffffffffffffffffffffffffffff03821115612c9757612c96612dd5565b5b828201905092915050565b6000612cad82612d4f565b9150612cb883612d4f565b925082612cc857612cc7612e04565b5b828204905092915050565b6000612cde82612d4f565b9150612ce983612d4f565b925082821015612cfc57612cfb612dd5565b5b828203905092915050565b6000612d1282612d2f565b9050919050565b60008115159050919050565b6000819050919050565b600073ffffffffffffffffffffffffffffffffffffffff82169050919050565b6000819050919050565b600060ff82169050919050565b60005b83811015612d84578082015181840152602081019050612d69565b83811115612d93576000848401525b50505050565b60006002820490506001821680612db157607f821691505b60208210811415612dc557612dc4612e33565b5b50919050565b6000819050919050565b7f4e487b7100000000000000000000000000000000000000000000000000000000600052601160045260246000fd5b7f4e487b7100000000000000000000000000000000000000000000000000000000600052601260045260246000fd5b7f4e487b7100000000000000000000000000000000000000000000000000000000600052602260045260246000fd5b6000601f19601f8301169050919050565b7f45434453413a20696e76616c6964207369676e61747572650000000000000000600082015250565b7f4552433230536e617073686f743a206e6f6e6578697374656e74206964000000600082015250565b7f45524332303a207472616e7366657220746f20746865207a65726f206164647260008201527f6573730000000000000000000000000000000000000000000000000000000000602082015250565b7f45524332303a206275726e20616d6f756e7420657863656564732062616c616e60008201527f6365000000000000000000000000000000000000000000000000000000000000602082015250565b7f45434453413a20696e76616c6964207369676e6174757265206c656e67746800600082015250565b7f4f776e61626c653a206e6577206f776e657220697320746865207a65726f206160008201527f6464726573730000000000000000000000000000000000000000000000000000602082015250565b7f45524332303a20617070726f766520746f20746865207a65726f20616464726560008201527f7373000000000000000000000000000000000000000000000000000000000000602082015250565b7f1901000000000000000000000000000000000000000000000000000000000000600082015250565b7f45524332303a20696e73756666696369656e7420616c6c6f77616e6365000000600082015250565b7f45524332305065726d69743a206578706972656420646561646c696e65000000600082015250565b7f45524332303a207472616e7366657220616d6f756e742065786365656473206260008201527f616c616e63650000000000000000000000000000000000000000000000000000602082015250565b7f45434453413a20696e76616c6964207369676e6174757265202773272076616c60008201527f7565000000000000000000000000000000000000000000000000000000000000602082015250565b7f45434453413a20696e76616c6964207369676e6174757265202776272076616c60008201527f7565000000000000000000000000000000000000000000000000000000000000602082015250565b7f45524332305065726d69743a20696e76616c6964207369676e61747572650000600082015250565b7f4f776e61626c653a2063616c6c6572206973206e6f7420746865206f776e6572600082015250565b7f45524332303a206275726e2066726f6d20746865207a65726f2061646472657360008201527f7300000000000000000000000000000000000000000000000000000000000000602082015250565b7f45524332303a207472616e736665722066726f6d20746865207a65726f20616460008201527f6472657373000000000000000000000000000000000000000000000000000000602082015250565b7f45524332303a20617070726f76652066726f6d20746865207a65726f2061646460008201527f7265737300000000000000000000000000000000000000000000000000000000602082015250565b7f4552433230536e617073686f743a206964206973203000000000000000000000600082015250565b7f45524332303a2064656372656173656420616c6c6f77616e63652062656c6f7760008201527f207a65726f000000000000000000000000000000000000000000000000000000602082015250565b7f45524332303a206d696e7420746f20746865207a65726f206164647265737300600082015250565b61337b81612d07565b811461338657600080fd5b50565b61339281612d25565b811461339d57600080fd5b50565b6133a981612d4f565b81146133b457600080fd5b50565b6133c081612d59565b81146133cb57600080fd5b5056fea2646970667358221220a6f49c8e0b05b02e830b18776edcbe543d2f0e3e3030fe2e4f27b79bb420f10264736f6c63430008020033",
  "linkReferences": {},
  "deployedLinkReferences": {}
}