{
  "_format": "hh-sol-artifact-1",
  "contractName": "BigBoyToken",
  "sourceName": "contracts/BigBoyToken.sol",
  "abi": [
    {
      "inputs": [],
      "stateMutability": "nonpayable",
      "type": "constructor"
    },
    {
      "anonymous": false,
      "inputs": [
        {
          "indexed": true,
          "internalType": "address",
          "name": "owner",
          "type": "address"
        },
        {
          "indexed": true,
          "internalType": "address",
          "name": "spender",
          "type": "address"
        },
        {
          "indexed": false,
          "internalType": "uint256",
          "name": "value",
          "type": "uint256"
        }
      ],
      "name": "Approval",
      "type": "event"
    },
    {
      "anonymous": false,
      "inputs": [
        {
          "indexed": true,
          "internalType": "address",
          "name": "previousOwner",
          "type": "address"
        },
        {
          "indexed": true,
          "internalType": "address",
          "name": "newOwner",
          "type": "address"
        }
      ],
      "name": "OwnershipTransferred",
      "type": "event"
    },
    {
      "anonymous": false,
      "inputs": [
        {
          "indexed": false,
          "internalType": "uint256",
          "name": "id",
          "type": "uint256"
        }
      ],
      "name": "Snapshot",
      "type": "event"
    },
    {
      "anonymous": false,
      "inputs": [
        {
          "indexed": true,
          "internalType": "address",
          "name": "from",
          "type": "address"
        },
        {
          "indexed": true,
          "internalType": "address",
          "name": "to",
          "type": "address"
        },
        {
          "indexed": false,
          "internalType": "uint256",
          "name": "value",
          "type": "uint256"
        }
      ],
      "name": "Transfer",
      "type": "event"
    },
    {
      "inputs": [],
      "name": "DOMAIN_SEPARATOR",
      "outputs": [
        {
          "internalType": "bytes32",
          "name": "",
          "type": "bytes32"
        }
      ],
      "stateMutability": "view",
      "type": "function"
    },
    {
      "inputs": [
        {
          "internalType": "address",
          "name": "owner",
          "type": "address"
        },
        {
          "internalType": "address",
          "name": "spender",
          "type": "address"
        }
      ],
      "name": "allowance",
      "outputs": [
        {
          "internalType": "uint256",
          "name": "",
          "type": "uint256"
        }
      ],
      "stateMutability": "view",
      "type": "function"
    },
    {
      "inputs": [
        {
          "internalType": "address",
          "name": "spender",
          "type": "address"
        },
        {
          "internalType": "uint256",
          "name": "amount",
          "type": "uint256"
        }
      ],
      "name": "approve",
      "outputs": [
        {
          "internalType": "bool",
          "name": "",
          "type": "bool"
        }
      ],
      "stateMutability": "nonpayable",
      "type": "function"
    },
    {
      "inputs": [
        {
          "internalType": "address",
          "name": "account",
          "type": "address"
        }
      ],
      "name": "balanceOf",
      "outputs": [
        {
          "internalType": "uint256",
          "name": "",
          "type": "uint256"
        }
      ],
      "stateMutability": "view",
      "type": "function"
    },
    {
      "inputs": [
        {
          "internalType": "address",
          "name": "account",
          "type": "address"
        },
        {
          "internalType": "uint256",
          "name": "snapshotId",
          "type": "uint256"
        }
      ],
      "name": "balanceOfAt",
      "outputs": [
        {
          "internalType": "uint256",
          "name": "",
          "type": "uint256"
        }
      ],
      "stateMutability": "view",
      "type": "function"
    },
    {
      "inputs": [
        {
          "internalType": "uint256",
          "name": "amount",
          "type": "uint256"
        }
      ],
      "name": "burn",
      "outputs": [],
      "stateMutability": "nonpayable",
      "type": "function"
    },
    {
      "inputs": [
        {
          "internalType": "address",
          "name": "account",
          "type": "address"
        },
        {
          "internalType": "uint256",
          "name": "amount",
          "type": "uint256"
        }
      ],
      "name": "burnFrom",
      "outputs": [],
      "stateMutability": "nonpayable",
      "type": "function"
    },
    {
      "inputs": [],
      "name": "decimals",
      "outputs": [
        {
          "internalType": "uint8",
          "name": "",
          "type": "uint8"
        }
      ],
      "stateMutability": "view",
      "type": "function"
    },
    {
      "inputs": [
        {
          "internalType": "address",
          "name": "spender",
          "type": "address"
        },
        {
          "internalType": "uint256",
          "name": "subtractedValue",
          "type": "uint256"
        }
      ],
      "name": "decreaseAllowance",
      "outputs": [
        {
          "internalType": "bool",
          "name": "",
          "type": "bool"
        }
      ],
      "stateMutability": "nonpayable",
      "type": "function"
    },
    {
      "inputs": [
        {
          "internalType": "address",
          "name": "spender",
          "type": "address"
        },
        {
          "internalType": "uint256",
          "name": "addedValue",
          "type": "uint256"
        }
      ],
      "name": "increaseAllowance",
      "outputs": [
        {
          "internalType": "bool",
          "name": "",
          "type": "bool"
        }
      ],
      "stateMutability": "nonpayable",
      "type": "function"
    },
    {
      "inputs": [
        {
          "internalType": "address",
          "name": "to",
          "type": "address"
        },
        {
          "internalType": "uint256",
          "name": "amount",
          "type": "uint256"
        }
      ],
      "name": "mint",
      "outputs": [],
      "stateMutability": "nonpayable",
      "type": "function"
    },
    {
      "inputs": [],
      "name": "name",
      "outputs": [
        {
          "internalType": "string",
          "name": "",
          "type": "string"
        }
      ],
      "stateMutability": "view",
      "type": "function"
    },
    {
      "inputs": [
        {
          "internalType": "address",
          "name": "owner",
          "type": "address"
        }
      ],
      "name": "nonces",
      "outputs": [
        {
          "internalType": "uint256",
          "name": "",
          "type": "uint256"
        }
      ],
      "stateMutability": "view",
      "type": "function"
    },
    {
      "inputs": [],
      "name": "owner",
      "outputs": [
        {
          "internalType": "address",
          "name": "",
          "type": "address"
        }
      ],
      "stateMutability": "view",
      "type": "function"
    },
    {
      "inputs": [
        {
          "internalType": "address",
          "name": "owner",
          "type": "address"
        },
        {
          "internalType": "address",
          "name": "spender",
          "type": "address"
        },
        {
          "internalType": "uint256",
          "name": "value",
          "type": "uint256"
        },
        {
          "internalType": "uint256",
          "name": "deadline",
          "type": "uint256"
        },
        {
          "internalType": "uint8",
          "name": "v",
          "type": "uint8"
        },
        {
          "internalType": "bytes32",
          "name": "r",
          "type": "bytes32"
        },
        {
          "internalType": "bytes32",
          "name": "s",
          "type": "bytes32"
        }
      ],
      "name": "permit",
      "outputs": [],
      "stateMutability": "nonpayable",
      "type": "function"
    },
    {
      "inputs": [],
      "name": "renounceOwnership",
      "outputs": [],
      "stateMutability": "nonpayable",
      "type": "function"
    },
    {
      "inputs": [],
      "name": "snapshot",
      "outputs": [],
      "stateMutability": "nonpayable",
      "type": "function"
    },
    {
      "inputs": [],
      "name": "symbol",
      "outputs": [
        {
          "internalType": "string",
          "name": "",
          "type": "string"
        }
      ],
      "stateMutability": "view",
      "type": "function"
    },
    {
      "inputs": [],
      "name": "totalSupply",
      "outputs": [
        {
          "internalType": "uint256",
          "name": "",
          "type": "uint256"
        }
      ],
      "stateMutability": "view",
      "type": "function"
    },
    {
      "inputs": [
        {
          "internalType": "uint256",
          "name": "snapshotId",
          "type": "uint256"
        }
      ],
      "name": "totalSupplyAt",
      "outputs": [
        {
          "internalType": "uint256",
          "name": "",
          "type": "uint256"
        }
      ],
      "stateMutability": "view",
      "type": "function"
    },
    {
      "inputs": [
        {
          "internalType": "address",
          "name": "recipient",
          "type": "address"
        },
        {
          "internalType": "uint256",
          "name": "amount",
          "type": "uint256"
        }
      ],
      "name": "transfer",
      "outputs": [
        {
          "internalType": "bool",
          "name": "",
          "type": "bool"
        }
      ],
      "stateMutability": "nonpayable",
      "type": "function"
    },
    {
      "inputs": [
        {
          "internalType": "address",
          "name": "sender",
          "type": "address"
        },
        {
          "internalType": "address",
          "name": "recipient",
          "type": "address"
        },
        {
          "internalType": "uint256",
          "name": "amount",
          "type": "uint256"
        }
      ],
      "name": "transferFrom",
      "outputs": [
        {
          "internalType": "bool",
          "name": "",
          "type": "bool"
        }
      ],
      "stateMutability": "nonpayable",
      "type": "function"
    },
    {
      "inputs": [
        {
          "internalType": "address",
          "name": "newOwner",
          "type": "address"
        }
      ],
      "name": "transferOwnership",
      "outputs": [],
      "stateMutability": "nonpayable",
      "type": "function"
    }
  ],
  "bytecode": "0x6101606040527f6e71edae12b1b97f4d1f60370fef10105fa2faae0126114a169c64845d6126c9610140908152503480156200003a57600080fd5b506040518060400160405280600b81526020017f426967426f79546f6b656e000000000000000000000000000000000000000000815250806040518060400160405280600181526020017f31000000000000000000000000000000000000000000000000000000000000008152506040518060400160405280600b81526020017f426967426f79546f6b656e0000000000000000000000000000000000000000008152506040518060400160405280600381526020017f424254000000000000000000000000000000000000000000000000000000000081525081600390805190602001906200012c9291906200081a565b508060049080519060200190620001459291906200081a565b505050620001686200015c6200026360201b60201c565b6200026b60201b60201c565b60008280519060200120905060008280519060200120905060007f8b73c3c69bb8fe3d512ecc4cf759cc79239f7b179b0ffacaa9a75d522b39400f90508260e081815250508161010081815250504660a08181525050620001d18184846200033160201b60201c565b608081815250503073ffffffffffffffffffffffffffffffffffffffff1660c08173ffffffffffffffffffffffffffffffffffffffff1660601b815250508061012081815250505050505050506200025d33620002336200036d60201b60201c565b600a62000241919062000a89565b620f424062000251919062000bc6565b6200037660201b60201c565b62000d81565b600033905090565b6000600960009054906101000a900473ffffffffffffffffffffffffffffffffffffffff16905081600960006101000a81548173ffffffffffffffffffffffffffffffffffffffff021916908373ffffffffffffffffffffffffffffffffffffffff1602179055508173ffffffffffffffffffffffffffffffffffffffff168173ffffffffffffffffffffffffffffffffffffffff167f8be0079c531659141344cd1fd0a4f28419497f9722a3daafe3b4186f6b6457e060405160405180910390a35050565b600083838346306040516020016200034e95949392919062000924565b6040516020818303038152906040528051906020012090509392505050565b60006012905090565b600073ffffffffffffffffffffffffffffffffffffffff168273ffffffffffffffffffffffffffffffffffffffff161415620003e9576040517f08c379a0000000000000000000000000000000000000000000000000000000008152600401620003e09062000981565b60405180910390fd5b620003fd60008383620004ef60201b60201c565b8060026000828254620004119190620009d1565b92505081905550806000808473ffffffffffffffffffffffffffffffffffffffff1673ffffffffffffffffffffffffffffffffffffffff1681526020019081526020016000206000828254620004689190620009d1565b925050819055508173ffffffffffffffffffffffffffffffffffffffff16600073ffffffffffffffffffffffffffffffffffffffff167fddf252ad1be2c89b69c2b068fc378daa952ba7f163c4a11628f55a4df523b3ef83604051620004cf9190620009a3565b60405180910390a3620004eb600083836200050c60201b60201c565b5050565b620005078383836200051160201b62000ee31760201c565b505050565b505050565b620005298383836200060c60201b62000f9d1760201c565b600073ffffffffffffffffffffffffffffffffffffffff168373ffffffffffffffffffffffffffffffffffffffff161415620005865762000570826200061160201b60201c565b620005806200067460201b60201c565b62000607565b600073ffffffffffffffffffffffffffffffffffffffff168273ffffffffffffffffffffffffffffffffffffffff161415620005e357620005cd836200061160201b60201c565b620005dd6200067460201b60201c565b62000606565b620005f4836200061160201b60201c565b62000605826200061160201b60201c565b5b5b505050565b505050565b62000671600560008373ffffffffffffffffffffffffffffffffffffffff1673ffffffffffffffffffffffffffffffffffffffff16815260200190815260200160002062000665836200069860201b60201c565b620006e060201b60201c565b50565b6200069660066200068a6200076c60201b60201c565b620006e060201b60201c565b565b60008060008373ffffffffffffffffffffffffffffffffffffffff1673ffffffffffffffffffffffffffffffffffffffff168152602001908152602001600020549050919050565b6000620006f26200077660201b60201c565b90508062000709846000016200079460201b60201c565b1015620007675782600001819080600181540180825580915050600190039060005260206000200160009091909190915055826001018290806001815401808255809150506001900390600052602060002001600090919091909150555b505050565b6000600254905090565b60006200078f60086200080c60201b62000fa21760201c565b905090565b60008082805490501415620007ad576000905062000807565b8160018380549050620007c1919062000c27565b81548110620007f9577f4e487b7100000000000000000000000000000000000000000000000000000000600052603260045260246000fd5b906000526020600020015490505b919050565b600081600001549050919050565b828054620008289062000cb7565b90600052602060002090601f0160209004810192826200084c576000855562000898565b82601f106200086757805160ff191683800117855562000898565b8280016001018555821562000898579182015b82811115620008975782518255916020019190600101906200087a565b5b509050620008a79190620008ab565b5090565b5b80821115620008c6576000816000905550600101620008ac565b5090565b620008d58162000c62565b82525050565b620008e68162000c76565b82525050565b6000620008fb601f83620009c0565b9150620009088262000d58565b602082019050919050565b6200091e8162000ca0565b82525050565b600060a0820190506200093b6000830188620008db565b6200094a6020830187620008db565b620009596040830186620008db565b62000968606083018562000913565b620009776080830184620008ca565b9695505050505050565b600060208201905081810360008301526200099c81620008ec565b9050919050565b6000602082019050620009ba600083018462000913565b92915050565b600082825260208201905092915050565b6000620009de8262000ca0565b9150620009eb8362000ca0565b9250827fffffffffffffffffffffffffffffffffffffffffffffffffffffffffffffffff0382111562000a235762000a2262000ced565b5b828201905092915050565b6000808291508390505b600185111562000a805780860481111562000a585762000a5762000ced565b5b600185161562000a685780820291505b808102905062000a788562000d4b565b945062000a38565b94509492505050565b600062000a968262000ca0565b915062000aa38362000caa565b925062000ad27fffffffffffffffffffffffffffffffffffffffffffffffffffffffffffffffff848462000ada565b905092915050565b60008262000aec576001905062000bbf565b8162000afc576000905062000bbf565b816001811462000b15576002811462000b205762000b56565b600191505062000bbf565b60ff84111562000b355762000b3462000ced565b5b8360020a91508482111562000b4f5762000b4e62000ced565b5b5062000bbf565b5060208310610133831016604e8410600b841016171562000b905782820a90508381111562000b8a5762000b8962000ced565b5b62000bbf565b62000b9f848484600162000a2e565b9250905081840481111562000bb95762000bb862000ced565b5b81810290505b9392505050565b600062000bd38262000ca0565b915062000be08362000ca0565b9250817fffffffffffffffffffffffffffffffffffffffffffffffffffffffffffffffff048311821515161562000c1c5762000c1b62000ced565b5b828202905092915050565b600062000c348262000ca0565b915062000c418362000ca0565b92508282101562000c575762000c5662000ced565b5b828203905092915050565b600062000c6f8262000c80565b9050919050565b6000819050919050565b600073ffffffffffffffffffffffffffffffffffffffff82169050919050565b6000819050919050565b600060ff82169050919050565b6000600282049050600182168062000cd057607f821691505b6020821081141562000ce75762000ce662000d1c565b5b50919050565b7f4e487b7100000000000000000000000000000000000000000000000000000000600052601160045260246000fd5b7f4e487b7100000000000000000000000000000000000000000000000000000000600052602260045260246000fd5b60008160011c9050919050565b7f45524332303a206d696e7420746f20746865207a65726f206164647265737300600082015250565b60805160a05160c05160601c60e05161010051610120516101405161354d62000ddf6000396000610c69015260006114b2015260006114f4015260006114d3015260006114080152600061145e01526000611487015261354d6000f3fe608060405234801561001057600080fd5b506004361061014d5760003560e01c8063715018a6116100c3578063981b24d01161007c578063981b24d01461038e578063a457c2d7146103be578063a9059cbb146103ee578063d505accf1461041e578063dd62ed3e1461043a578063f2fde38b1461046a5761014d565b8063715018a6146102f257806379cc6790146102fc5780637ecebe00146103185780638da5cb5b1461034857806395d89b41146103665780639711715a146103845761014d565b80633644e515116101155780633644e5151461020c578063395093511461022a57806340c10f191461025a57806342966c68146102765780634ee2cd7e1461029257806370a08231146102c25761014d565b806306fdde0314610152578063095ea7b31461017057806318160ddd146101a057806323b872dd146101be578063313ce567146101ee575b600080fd5b61015a610486565b6040516101679190612a01565b60405180910390f35b61018a6004803603810190610185919061247e565b610518565b60405161019791906128d2565b60405180910390f35b6101a8610536565b6040516101b59190612cc3565b60405180910390f35b6101d860048036038101906101d39190612391565b610540565b6040516101e591906128d2565b60405180910390f35b6101f6610638565b6040516102039190612cde565b60405180910390f35b610214610641565b60405161022191906128ed565b60405180910390f35b610244600480360381019061023f919061247e565b610650565b60405161025191906128d2565b60405180910390f35b610274600480360381019061026f919061247e565b6106fc565b005b610290600480360381019061028b91906124ba565b610786565b005b6102ac60048036038101906102a7919061247e565b61079a565b6040516102b99190612cc3565b60405180910390f35b6102dc60048036038101906102d7919061232c565b61080a565b6040516102e99190612cc3565b60405180910390f35b6102fa610852565b005b6103166004803603810190610311919061247e565b6108da565b005b610332600480360381019061032d919061232c565b610955565b60405161033f9190612cc3565b60405180910390f35b6103506109a5565b60405161035d91906128b7565b60405180910390f35b61036e6109cf565b60405161037b9190612a01565b60405180910390f35b61038c610a61565b005b6103a860048036038101906103a391906124ba565b610ae8565b6040516103b59190612cc3565b60405180910390f35b6103d860048036038101906103d3919061247e565b610b19565b6040516103e591906128d2565b60405180910390f35b6104086004803603810190610403919061247e565b610c04565b60405161041591906128d2565b60405180910390f35b610438600480360381019061043391906123e0565b610c22565b005b610454600480360381019061044f9190612355565b610d64565b6040516104619190612cc3565b60405180910390f35b610484600480360381019061047f919061232c565b610deb565b005b60606003805461049590612e6d565b80601f01602080910402602001604051908101604052809291908181526020018280546104c190612e6d565b801561050e5780601f106104e35761010080835404028352916020019161050e565b820191906000526020600020905b8154815290600101906020018083116104f157829003601f168201915b5050505050905090565b600061052c610525610fb0565b8484610fb8565b6001905092915050565b6000600254905090565b600061054d848484611183565b6000600160008673ffffffffffffffffffffffffffffffffffffffff1673ffffffffffffffffffffffffffffffffffffffff1681526020019081526020016000206000610598610fb0565b73ffffffffffffffffffffffffffffffffffffffff1673ffffffffffffffffffffffffffffffffffffffff16815260200190815260200160002054905082811015610618576040517f08c379a000000000000000000000000000000000000000000000000000000000815260040161060f90612ba3565b60405180910390fd5b61062c85610624610fb0565b858403610fb8565b60019150509392505050565b60006012905090565b600061064b611404565b905090565b60006106f261065d610fb0565b84846001600061066b610fb0565b73ffffffffffffffffffffffffffffffffffffffff1673ffffffffffffffffffffffffffffffffffffffff16815260200190815260200160002060008873ffffffffffffffffffffffffffffffffffffffff1673ffffffffffffffffffffffffffffffffffffffff168152602001908152602001600020546106ed9190612d20565b610fb8565b6001905092915050565b610704610fb0565b73ffffffffffffffffffffffffffffffffffffffff166107226109a5565b73ffffffffffffffffffffffffffffffffffffffff1614610778576040517f08c379a000000000000000000000000000000000000000000000000000000000815260040161076f90612bc3565b60405180910390fd5b610782828261151e565b5050565b610797610791610fb0565b8261167e565b50565b60008060006107e784600560008873ffffffffffffffffffffffffffffffffffffffff1673ffffffffffffffffffffffffffffffffffffffff168152602001908152602001600020611855565b91509150816107fe576107f98561080a565b610800565b805b9250505092915050565b60008060008373ffffffffffffffffffffffffffffffffffffffff1673ffffffffffffffffffffffffffffffffffffffff168152602001908152602001600020549050919050565b61085a610fb0565b73ffffffffffffffffffffffffffffffffffffffff166108786109a5565b73ffffffffffffffffffffffffffffffffffffffff16146108ce576040517f08c379a00000000000000000000000000000000000000000000000000000000081526004016108c590612bc3565b60405180910390fd5b6108d86000611971565b565b60006108ed836108e8610fb0565b610d64565b905081811015610932576040517f08c379a000000000000000000000000000000000000000000000000000000000815260040161092990612be3565b60405180910390fd5b6109468361093e610fb0565b848403610fb8565b610950838361167e565b505050565b600061099e600a60008473ffffffffffffffffffffffffffffffffffffffff1673ffffffffffffffffffffffffffffffffffffffff168152602001908152602001600020610fa2565b9050919050565b6000600960009054906101000a900473ffffffffffffffffffffffffffffffffffffffff16905090565b6060600480546109de90612e6d565b80601f0160208091040260200160405190810160405280929190818152602001828054610a0a90612e6d565b8015610a575780601f10610a2c57610100808354040283529160200191610a57565b820191906000526020600020905b815481529060010190602001808311610a3a57829003601f168201915b5050505050905090565b610a69610fb0565b73ffffffffffffffffffffffffffffffffffffffff16610a876109a5565b73ffffffffffffffffffffffffffffffffffffffff1614610add576040517f08c379a0000000000000000000000000000000000000000000000000000000008152600401610ad490612bc3565b60405180910390fd5b610ae5611a37565b50565b6000806000610af8846006611855565b9150915081610b0e57610b09610536565b610b10565b805b92505050919050565b60008060016000610b28610fb0565b73ffffffffffffffffffffffffffffffffffffffff1673ffffffffffffffffffffffffffffffffffffffff16815260200190815260200160002060008573ffffffffffffffffffffffffffffffffffffffff1673ffffffffffffffffffffffffffffffffffffffff16815260200190815260200160002054905082811015610be5576040517f08c379a0000000000000000000000000000000000000000000000000000000008152600401610bdc90612c83565b60405180910390fd5b610bf9610bf0610fb0565b85858403610fb8565b600191505092915050565b6000610c18610c11610fb0565b8484611183565b6001905092915050565b83421115610c65576040517f08c379a0000000000000000000000000000000000000000000000000000000008152600401610c5c90612b03565b60405180910390fd5b60007f0000000000000000000000000000000000000000000000000000000000000000888888610c948c611a8d565b89604051602001610caa96959493929190612908565b6040516020818303038152906040528051906020012090506000610ccd82611aeb565b90506000610cdd82878787611b05565b90508973ffffffffffffffffffffffffffffffffffffffff168173ffffffffffffffffffffffffffffffffffffffff1614610d4d576040517f08c379a0000000000000000000000000000000000000000000000000000000008152600401610d4490612b83565b60405180910390fd5b610d588a8a8a610fb8565b50505050505050505050565b6000600160008473ffffffffffffffffffffffffffffffffffffffff1673ffffffffffffffffffffffffffffffffffffffff16815260200190815260200160002060008373ffffffffffffffffffffffffffffffffffffffff1673ffffffffffffffffffffffffffffffffffffffff16815260200190815260200160002054905092915050565b610df3610fb0565b73ffffffffffffffffffffffffffffffffffffffff16610e116109a5565b73ffffffffffffffffffffffffffffffffffffffff1614610e67576040517f08c379a0000000000000000000000000000000000000000000000000000000008152600401610e5e90612bc3565b60405180910390fd5b600073ffffffffffffffffffffffffffffffffffffffff168173ffffffffffffffffffffffffffffffffffffffff161415610ed7576040517f08c379a0000000000000000000000000000000000000000000000000000000008152600401610ece90612ac3565b60405180910390fd5b610ee081611971565b50565b610eee838383610f9d565b600073ffffffffffffffffffffffffffffffffffffffff168373ffffffffffffffffffffffffffffffffffffffff161415610f3957610f2c82611b30565b610f34611b83565b610f98565b600073ffffffffffffffffffffffffffffffffffffffff168273ffffffffffffffffffffffffffffffffffffffff161415610f8457610f7783611b30565b610f7f611b83565b610f97565b610f8d83611b30565b610f9682611b30565b5b5b505050565b505050565b600081600001549050919050565b600033905090565b600073ffffffffffffffffffffffffffffffffffffffff168373ffffffffffffffffffffffffffffffffffffffff161415611028576040517f08c379a000000000000000000000000000000000000000000000000000000000815260040161101f90612c43565b60405180910390fd5b600073ffffffffffffffffffffffffffffffffffffffff168273ffffffffffffffffffffffffffffffffffffffff161415611098576040517f08c379a000000000000000000000000000000000000000000000000000000000815260040161108f90612ae3565b60405180910390fd5b80600160008573ffffffffffffffffffffffffffffffffffffffff1673ffffffffffffffffffffffffffffffffffffffff16815260200190815260200160002060008473ffffffffffffffffffffffffffffffffffffffff1673ffffffffffffffffffffffffffffffffffffffff168152602001908152602001600020819055508173ffffffffffffffffffffffffffffffffffffffff168373ffffffffffffffffffffffffffffffffffffffff167f8c5be1e5ebec7d5bd14f71427d1e84f3dd0314c0f7b2291e5b200ac8c7c3b925836040516111769190612cc3565b60405180910390a3505050565b600073ffffffffffffffffffffffffffffffffffffffff168373ffffffffffffffffffffffffffffffffffffffff1614156111f3576040517f08c379a00000000000000000000000000000000000000000000000000000000081526004016111ea90612c23565b60405180910390fd5b600073ffffffffffffffffffffffffffffffffffffffff168273ffffffffffffffffffffffffffffffffffffffff161415611263576040517f08c379a000000000000000000000000000000000000000000000000000000000815260040161125a90612a63565b60405180910390fd5b61126e838383611b97565b60008060008573ffffffffffffffffffffffffffffffffffffffff1673ffffffffffffffffffffffffffffffffffffffff168152602001908152602001600020549050818110156112f4576040517f08c379a00000000000000000000000000000000000000000000000000000000081526004016112eb90612b23565b60405180910390fd5b8181036000808673ffffffffffffffffffffffffffffffffffffffff1673ffffffffffffffffffffffffffffffffffffffff16815260200190815260200160002081905550816000808573ffffffffffffffffffffffffffffffffffffffff1673ffffffffffffffffffffffffffffffffffffffff16815260200190815260200160002060008282546113879190612d20565b925050819055508273ffffffffffffffffffffffffffffffffffffffff168473ffffffffffffffffffffffffffffffffffffffff167fddf252ad1be2c89b69c2b068fc378daa952ba7f163c4a11628f55a4df523b3ef846040516113eb9190612cc3565b60405180910390a36113fe848484611ba7565b50505050565b60007f000000000000000000000000000000000000000000000000000000000000000073ffffffffffffffffffffffffffffffffffffffff163073ffffffffffffffffffffffffffffffffffffffff1614801561148057507f000000000000000000000000000000000000000000000000000000000000000046145b156114ad577f0000000000000000000000000000000000000000000000000000000000000000905061151b565b6115187f00000000000000000000000000000000000000000000000000000000000000007f00000000000000000000000000000000000000000000000000000000000000007f0000000000000000000000000000000000000000000000000000000000000000611bac565b90505b90565b600073ffffffffffffffffffffffffffffffffffffffff168273ffffffffffffffffffffffffffffffffffffffff16141561158e576040517f08c379a000000000000000000000000000000000000000000000000000000000815260040161158590612ca3565b60405180910390fd5b61159a60008383611b97565b80600260008282546115ac9190612d20565b92505081905550806000808473ffffffffffffffffffffffffffffffffffffffff1673ffffffffffffffffffffffffffffffffffffffff16815260200190815260200160002060008282546116019190612d20565b925050819055508173ffffffffffffffffffffffffffffffffffffffff16600073ffffffffffffffffffffffffffffffffffffffff167fddf252ad1be2c89b69c2b068fc378daa952ba7f163c4a11628f55a4df523b3ef836040516116669190612cc3565b60405180910390a361167a60008383611ba7565b5050565b600073ffffffffffffffffffffffffffffffffffffffff168273ffffffffffffffffffffffffffffffffffffffff1614156116ee576040517f08c379a00000000000000000000000000000000000000000000000000000000081526004016116e590612c03565b60405180910390fd5b6116fa82600083611b97565b60008060008473ffffffffffffffffffffffffffffffffffffffff1673ffffffffffffffffffffffffffffffffffffffff16815260200190815260200160002054905081811015611780576040517f08c379a000000000000000000000000000000000000000000000000000000000815260040161177790612a83565b60405180910390fd5b8181036000808573ffffffffffffffffffffffffffffffffffffffff1673ffffffffffffffffffffffffffffffffffffffff1681526020019081526020016000208190555081600260008282546117d79190612da7565b92505081905550600073ffffffffffffffffffffffffffffffffffffffff168373ffffffffffffffffffffffffffffffffffffffff167fddf252ad1be2c89b69c2b068fc378daa952ba7f163c4a11628f55a4df523b3ef8460405161183c9190612cc3565b60405180910390a361185083600084611ba7565b505050565b6000806000841161189b576040517f08c379a000000000000000000000000000000000000000000000000000000000815260040161189290612c63565b60405180910390fd5b6118a3611be6565b8411156118e5576040517f08c379a00000000000000000000000000000000000000000000000000000000081526004016118dc90612a43565b60405180910390fd5b60006118fd8585600001611bf790919063ffffffff16565b9050836000018054905081141561191b57600080925092505061196a565b6001846001018281548110611959577f4e487b7100000000000000000000000000000000000000000000000000000000600052603260045260246000fd5b906000526020600020015492509250505b9250929050565b6000600960009054906101000a900473ffffffffffffffffffffffffffffffffffffffff16905081600960006101000a81548173ffffffffffffffffffffffffffffffffffffffff021916908373ffffffffffffffffffffffffffffffffffffffff1602179055508173ffffffffffffffffffffffffffffffffffffffff168173ffffffffffffffffffffffffffffffffffffffff167f8be0079c531659141344cd1fd0a4f28419497f9722a3daafe3b4186f6b6457e060405160405180910390a35050565b6000611a436008611d1d565b6000611a4d611be6565b90507f8030e83b04d87bef53480e26263266d6ca66863aa8506aca6f2559d18aa1cb6781604051611a7e9190612cc3565b60405180910390a18091505090565b600080600a60008473ffffffffffffffffffffffffffffffffffffffff1673ffffffffffffffffffffffffffffffffffffffff1681526020019081526020016000209050611ada81610fa2565b9150611ae581611d1d565b50919050565b6000611afe611af8611404565b83611d33565b9050919050565b6000806000611b1687878787611d66565b91509150611b2381611e73565b8192505050949350505050565b611b80600560008373ffffffffffffffffffffffffffffffffffffffff1673ffffffffffffffffffffffffffffffffffffffff168152602001908152602001600020611b7b8361080a565b6121c4565b50565b611b956006611b90610536565b6121c4565b565b611ba2838383610ee3565b505050565b505050565b60008383834630604051602001611bc7959493929190612969565b6040516020818303038152906040528051906020012090509392505050565b6000611bf26008610fa2565b905090565b60008083805490501415611c0e5760009050611d17565b600080848054905090505b80821015611c98576000611c2d838361223f565b905084868281548110611c69577f4e487b7100000000000000000000000000000000000000000000000000000000600052603260045260246000fd5b90600052602060002001541115611c8257809150611c92565b600181611c8f9190612d20565b92505b50611c19565b600082118015611cf657508385600184611cb29190612da7565b81548110611ce9577f4e487b7100000000000000000000000000000000000000000000000000000000600052603260045260246000fd5b9060005260206000200154145b15611d1157600182611d089190612da7565b92505050611d17565b81925050505b92915050565b6001816000016000828254019250508190555050565b60008282604051602001611d48929190612880565b60405160208183030381529060405280519060200120905092915050565b6000807f7fffffffffffffffffffffffffffffff5d576e7357a4501ddfe92f46681b20a08360001c1115611da1576000600391509150611e6a565b601b8560ff1614158015611db95750601c8560ff1614155b15611dcb576000600491509150611e6a565b600060018787878760405160008152602001604052604051611df094939291906129bc565b6020604051602081039080840390855afa158015611e12573d6000803e3d6000fd5b505050602060405103519050600073ffffffffffffffffffffffffffffffffffffffff168173ffffffffffffffffffffffffffffffffffffffff161415611e6157600060019250925050611e6a565b80600092509250505b94509492505050565b60006004811115611ead577f4e487b7100000000000000000000000000000000000000000000000000000000600052602160045260246000fd5b816004811115611ee6577f4e487b7100000000000000000000000000000000000000000000000000000000600052602160045260246000fd5b1415611ef1576121c1565b60016004811115611f2b577f4e487b7100000000000000000000000000000000000000000000000000000000600052602160045260246000fd5b816004811115611f64577f4e487b7100000000000000000000000000000000000000000000000000000000600052602160045260246000fd5b1415611fa5576040517f08c379a0000000000000000000000000000000000000000000000000000000008152600401611f9c90612a23565b60405180910390fd5b60026004811115611fdf577f4e487b7100000000000000000000000000000000000000000000000000000000600052602160045260246000fd5b816004811115612018577f4e487b7100000000000000000000000000000000000000000000000000000000600052602160045260246000fd5b1415612059576040517f08c379a000000000000000000000000000000000000000000000000000000000815260040161205090612aa3565b60405180910390fd5b60036004811115612093577f4e487b7100000000000000000000000000000000000000000000000000000000600052602160045260246000fd5b8160048111156120cc577f4e487b7100000000000000000000000000000000000000000000000000000000600052602160045260246000fd5b141561210d576040517f08c379a000000000000000000000000000000000000000000000000000000000815260040161210490612b43565b60405180910390fd5b600480811115612146577f4e487b7100000000000000000000000000000000000000000000000000000000600052602160045260246000fd5b81600481111561217f577f4e487b7100000000000000000000000000000000000000000000000000000000600052602160045260246000fd5b14156121c0576040517f08c379a00000000000000000000000000000000000000000000000000000000081526004016121b790612b63565b60405180910390fd5b5b50565b60006121ce611be6565b9050806121dd84600001612265565b101561223a5782600001819080600181540180825580915050600190039060005260206000200160009091909190915055826001018290806001815401808255809150506001900390600052602060002001600090919091909150555b505050565b600060028284186122509190612d76565b82841661225d9190612d20565b905092915050565b6000808280549050141561227c57600090506122d3565b816001838054905061228e9190612da7565b815481106122c5577f4e487b7100000000000000000000000000000000000000000000000000000000600052603260045260246000fd5b906000526020600020015490505b919050565b6000813590506122e7816134bb565b92915050565b6000813590506122fc816134d2565b92915050565b600081359050612311816134e9565b92915050565b60008135905061232681613500565b92915050565b60006020828403121561233e57600080fd5b600061234c848285016122d8565b91505092915050565b6000806040838503121561236857600080fd5b6000612376858286016122d8565b9250506020612387858286016122d8565b9150509250929050565b6000806000606084860312156123a657600080fd5b60006123b4868287016122d8565b93505060206123c5868287016122d8565b92505060406123d686828701612302565b9150509250925092565b600080600080600080600060e0888a0312156123fb57600080fd5b60006124098a828b016122d8565b975050602061241a8a828b016122d8565b965050604061242b8a828b01612302565b955050606061243c8a828b01612302565b945050608061244d8a828b01612317565b93505060a061245e8a828b016122ed565b92505060c061246f8a828b016122ed565b91505092959891949750929550565b6000806040838503121561249157600080fd5b600061249f858286016122d8565b92505060206124b085828601612302565b9150509250929050565b6000602082840312156124cc57600080fd5b60006124da84828501612302565b91505092915050565b6124ec81612ddb565b82525050565b6124fb81612ded565b82525050565b61250a81612df9565b82525050565b61252161251c82612df9565b612e9f565b82525050565b600061253282612cf9565b61253c8185612d04565b935061254c818560208601612e3a565b61255581612f36565b840191505092915050565b600061256d601883612d04565b915061257882612f47565b602082019050919050565b6000612590601d83612d04565b915061259b82612f70565b602082019050919050565b60006125b3602383612d04565b91506125be82612f99565b604082019050919050565b60006125d6602283612d04565b91506125e182612fe8565b604082019050919050565b60006125f9601f83612d04565b915061260482613037565b602082019050919050565b600061261c602683612d04565b915061262782613060565b604082019050919050565b600061263f602283612d04565b915061264a826130af565b604082019050919050565b6000612662600283612d15565b915061266d826130fe565b600282019050919050565b6000612685601d83612d04565b915061269082613127565b602082019050919050565b60006126a8602683612d04565b91506126b382613150565b604082019050919050565b60006126cb602283612d04565b91506126d68261319f565b604082019050919050565b60006126ee602283612d04565b91506126f9826131ee565b604082019050919050565b6000612711601e83612d04565b915061271c8261323d565b602082019050919050565b6000612734602883612d04565b915061273f82613266565b604082019050919050565b6000612757602083612d04565b9150612762826132b5565b602082019050919050565b600061277a602483612d04565b9150612785826132de565b604082019050919050565b600061279d602183612d04565b91506127a88261332d565b604082019050919050565b60006127c0602583612d04565b91506127cb8261337c565b604082019050919050565b60006127e3602483612d04565b91506127ee826133cb565b604082019050919050565b6000612806601683612d04565b91506128118261341a565b602082019050919050565b6000612829602583612d04565b915061283482613443565b604082019050919050565b600061284c601f83612d04565b915061285782613492565b602082019050919050565b61286b81612e23565b82525050565b61287a81612e2d565b82525050565b600061288b82612655565b91506128978285612510565b6020820191506128a78284612510565b6020820191508190509392505050565b60006020820190506128cc60008301846124e3565b92915050565b60006020820190506128e760008301846124f2565b92915050565b60006020820190506129026000830184612501565b92915050565b600060c08201905061291d6000830189612501565b61292a60208301886124e3565b61293760408301876124e3565b6129446060830186612862565b6129516080830185612862565b61295e60a0830184612862565b979650505050505050565b600060a08201905061297e6000830188612501565b61298b6020830187612501565b6129986040830186612501565b6129a56060830185612862565b6129b260808301846124e3565b9695505050505050565b60006080820190506129d16000830187612501565b6129de6020830186612871565b6129eb6040830185612501565b6129f86060830184612501565b95945050505050565b60006020820190508181036000830152612a1b8184612527565b905092915050565b60006020820190508181036000830152612a3c81612560565b9050919050565b60006020820190508181036000830152612a5c81612583565b9050919050565b60006020820190508181036000830152612a7c816125a6565b9050919050565b60006020820190508181036000830152612a9c816125c9565b9050919050565b60006020820190508181036000830152612abc816125ec565b9050919050565b60006020820190508181036000830152612adc8161260f565b9050919050565b60006020820190508181036000830152612afc81612632565b9050919050565b60006020820190508181036000830152612b1c81612678565b9050919050565b60006020820190508181036000830152612b3c8161269b565b9050919050565b60006020820190508181036000830152612b5c816126be565b9050919050565b60006020820190508181036000830152612b7c816126e1565b9050919050565b60006020820190508181036000830152612b9c81612704565b9050919050565b60006020820190508181036000830152612bbc81612727565b9050919050565b60006020820190508181036000830152612bdc8161274a565b9050919050565b60006020820190508181036000830152612bfc8161276d565b9050919050565b60006020820190508181036000830152612c1c81612790565b9050919050565b60006020820190508181036000830152612c3c816127b3565b9050919050565b60006020820190508181036000830152612c5c816127d6565b9050919050565b60006020820190508181036000830152612c7c816127f9565b9050919050565b60006020820190508181036000830152612c9c8161281c565b9050919050565b60006020820190508181036000830152612cbc8161283f565b9050919050565b6000602082019050612cd86000830184612862565b92915050565b6000602082019050612cf36000830184612871565b92915050565b600081519050919050565b600082825260208201905092915050565b600081905092915050565b6000612d2b82612e23565b9150612d3683612e23565b9250827fffffffffffffffffffffffffffffffffffffffffffffffffffffffffffffffff03821115612d6b57612d6a612ea9565b5b828201905092915050565b6000612d8182612e23565b9150612d8c83612e23565b925082612d9c57612d9b612ed8565b5b828204905092915050565b6000612db282612e23565b9150612dbd83612e23565b925082821015612dd057612dcf612ea9565b5b828203905092915050565b6000612de682612e03565b9050919050565b60008115159050919050565b6000819050919050565b600073ffffffffffffffffffffffffffffffffffffffff82169050919050565b6000819050919050565b600060ff82169050919050565b60005b83811015612e58578082015181840152602081019050612e3d565b83811115612e67576000848401525b50505050565b60006002820490506001821680612e8557607f821691505b60208210811415612e9957612e98612f07565b5b50919050565b6000819050919050565b7f4e487b7100000000000000000000000000000000000000000000000000000000600052601160045260246000fd5b7f4e487b7100000000000000000000000000000000000000000000000000000000600052601260045260246000fd5b7f4e487b7100000000000000000000000000000000000000000000000000000000600052602260045260246000fd5b6000601f19601f8301169050919050565b7f45434453413a20696e76616c6964207369676e61747572650000000000000000600082015250565b7f4552433230536e617073686f743a206e6f6e6578697374656e74206964000000600082015250565b7f45524332303a207472616e7366657220746f20746865207a65726f206164647260008201527f6573730000000000000000000000000000000000000000000000000000000000602082015250565b7f45524332303a206275726e20616d6f756e7420657863656564732062616c616e60008201527f6365000000000000000000000000000000000000000000000000000000000000602082015250565b7f45434453413a20696e76616c6964207369676e6174757265206c656e67746800600082015250565b7f4f776e61626c653a206e6577206f776e657220697320746865207a65726f206160008201527f6464726573730000000000000000000000000000000000000000000000000000602082015250565b7f45524332303a20617070726f766520746f20746865207a65726f20616464726560008201527f7373000000000000000000000000000000000000000000000000000000000000602082015250565b7f1901000000000000000000000000000000000000000000000000000000000000600082015250565b7f45524332305065726d69743a206578706972656420646561646c696e65000000600082015250565b7f45524332303a207472616e7366657220616d6f756e742065786365656473206260008201527f616c616e63650000000000000000000000000000000000000000000000000000602082015250565b7f45434453413a20696e76616c6964207369676e6174757265202773272076616c60008201527f7565000000000000000000000000000000000000000000000000000000000000602082015250565b7f45434453413a20696e76616c6964207369676e6174757265202776272076616c60008201527f7565000000000000000000000000000000000000000000000000000000000000602082015250565b7f45524332305065726d69743a20696e76616c6964207369676e61747572650000600082015250565b7f45524332303a207472616e7366657220616d6f756e742065786365656473206160008201527f6c6c6f77616e6365000000000000000000000000000000000000000000000000602082015250565b7f4f776e61626c653a2063616c6c6572206973206e6f7420746865206f776e6572600082015250565b7f45524332303a206275726e20616d6f756e74206578636565647320616c6c6f7760008201527f616e636500000000000000000000000000000000000000000000000000000000602082015250565b7f45524332303a206275726e2066726f6d20746865207a65726f2061646472657360008201527f7300000000000000000000000000000000000000000000000000000000000000602082015250565b7f45524332303a207472616e736665722066726f6d20746865207a65726f20616460008201527f6472657373000000000000000000000000000000000000000000000000000000602082015250565b7f45524332303a20617070726f76652066726f6d20746865207a65726f2061646460008201527f7265737300000000000000000000000000000000000000000000000000000000602082015250565b7f4552433230536e617073686f743a206964206973203000000000000000000000600082015250565b7f45524332303a2064656372656173656420616c6c6f77616e63652062656c6f7760008201527f207a65726f000000000000000000000000000000000000000000000000000000602082015250565b7f45524332303a206d696e7420746f20746865207a65726f206164647265737300600082015250565b6134c481612ddb565b81146134cf57600080fd5b50565b6134db81612df9565b81146134e657600080fd5b50565b6134f281612e23565b81146134fd57600080fd5b50565b61350981612e2d565b811461351457600080fd5b5056fea2646970667358221220e88b8bbff11b5f563500f9696aa8383d41761a19b2c8229e7080473527fe599964736f6c63430008020033",
  "linkReferences": {},
  "deployedLinkReferences": {}
}