{
  "_format": "hh-sol-artifact-1",
  "contractName": "Lottery",
  "sourceName": "contracts/Lottery.sol",
  "abi": [
    {
      "inputs": [
        {
          "internalType": "contract IERC20",
          "name": "token",
          "type": "address"
        }
      ],
      "stateMutability": "nonpayable",
      "type": "constructor"
    },
    {
      "inputs": [],
      "name": "bbt",
      "outputs": [
        {
          "internalType": "contract IERC20",
          "name": "",
          "type": "address"
        }
      ],
      "stateMutability": "view",
      "type": "function"
    },
    {
      "inputs": [],
      "name": "draw",
      "outputs": [],
      "stateMutability": "nonpayable",
      "type": "function"
    },
    {
      "inputs": [
        {
          "internalType": "uint256",
          "name": "_totalTikets",
          "type": "uint256"
        }
      ],
      "name": "enter",
      "outputs": [],
      "stateMutability": "payable",
      "type": "function"
    },
    {
      "inputs": [
        {
          "internalType": "uint256",
          "name": "index",
          "type": "uint256"
        }
      ],
      "name": "getEntry",
      "outputs": [
        {
          "internalType": "address",
          "name": "",
          "type": "address"
        }
      ],
      "stateMutability": "view",
      "type": "function"
    },
    {
      "inputs": [],
      "name": "lastDrawTime",
      "outputs": [
        {
          "internalType": "uint256",
          "name": "",
          "type": "uint256"
        }
      ],
      "stateMutability": "view",
      "type": "function"
    },
    {
      "inputs": [
        {
          "internalType": "uint256",
          "name": "",
          "type": "uint256"
        }
      ],
      "name": "managers",
      "outputs": [
        {
          "internalType": "address",
          "name": "",
          "type": "address"
        }
      ],
      "stateMutability": "view",
      "type": "function"
    },
    {
      "inputs": [],
      "name": "owner",
      "outputs": [
        {
          "internalType": "address payable",
          "name": "",
          "type": "address"
        }
      ],
      "stateMutability": "view",
      "type": "function"
    },
    {
      "inputs": [],
      "name": "pricePool",
      "outputs": [
        {
          "internalType": "uint256",
          "name": "",
          "type": "uint256"
        }
      ],
      "stateMutability": "view",
      "type": "function"
    },
    {
      "inputs": [
        {
          "internalType": "bool",
          "name": "firstManager",
          "type": "bool"
        },
        {
          "internalType": "address",
          "name": "newMaanagerAddress",
          "type": "address"
        }
      ],
      "name": "setManager",
      "outputs": [],
      "stateMutability": "nonpayable",
      "type": "function"
    },
    {
      "inputs": [
        {
          "internalType": "uint256",
          "name": "_ticketPrice",
          "type": "uint256"
        }
      ],
      "name": "setTicketPrice",
      "outputs": [],
      "stateMutability": "nonpayable",
      "type": "function"
    },
    {
      "inputs": [],
      "name": "ticketPrice",
      "outputs": [
        {
          "internalType": "uint256",
          "name": "",
          "type": "uint256"
        }
      ],
      "stateMutability": "view",
      "type": "function"
    },
    {
      "inputs": [],
      "name": "totalEntries",
      "outputs": [
        {
          "internalType": "uint256",
          "name": "",
          "type": "uint256"
        }
      ],
      "stateMutability": "view",
      "type": "function"
    }
  ],
  "bytecode": "0x60806040526000600455604051620000179062000147565b604051809103906000f08015801562000034573d6000803e3d6000fd5b50600560006101000a81548173ffffffffffffffffffffffffffffffffffffffff021916908373ffffffffffffffffffffffffffffffffffffffff1602179055503480156200008257600080fd5b5060405162001c6a38038062001c6a8339818101604052810190620000a891906200016c565b336000806101000a81548173ffffffffffffffffffffffffffffffffffffffff021916908373ffffffffffffffffffffffffffffffffffffffff16021790555080600160006101000a81548173ffffffffffffffffffffffffffffffffffffffff021916908373ffffffffffffffffffffffffffffffffffffffff16021790555068015af1d78b58c400006006819055504260088190555050620001fa565b6102ff806200196b83390190565b6000815190506200016681620001e0565b92915050565b6000602082840312156200017f57600080fd5b60006200018f8482850162000155565b91505092915050565b6000620001a582620001c0565b9050919050565b6000620001b98262000198565b9050919050565b600073ffffffffffffffffffffffffffffffffffffffff82169050919050565b620001eb81620001ac565b8114620001f757600080fd5b50565b611761806200020a6000396000f3fe6080604052600436106100a75760003560e01c8063729274521161006457806372927452146101aa5780637fef036e146101d55780638da5cb5b14610200578063a59f3e0c1461022b578063bae78d7b14610247578063d37c076214610284576100a7565b80630eecae21146100ac5780631209b1f6146100c357806315981650146100ee5780633d39c2601461011757806356b95e88146101545780635cbbd6351461017f575b600080fd5b3480156100b857600080fd5b506100c16102ad565b005b3480156100cf57600080fd5b506100d861070b565b6040516100e59190611084565b60405180910390f35b3480156100fa57600080fd5b5061011560048036038101906101109190610dcb565b610711565b005b34801561012357600080fd5b5061013e60048036038101906101399190610dcb565b6107bc565b60405161014b9190610f33565b60405180910390f35b34801561016057600080fd5b506101696107f2565b6040516101769190611084565b60405180910390f35b34801561018b57600080fd5b506101946107f8565b6040516101a19190611084565b60405180910390f35b3480156101b657600080fd5b506101bf6107fe565b6040516101cc9190610fc9565b60405180910390f35b3480156101e157600080fd5b506101ea610824565b6040516101f79190611084565b60405180910390f35b34801561020c57600080fd5b5061021561082a565b6040516102229190610f4e565b60405180910390f35b61024560048036038101906102409190610dcb565b61084e565b005b34801561025357600080fd5b5061026e60048036038101906102699190610dcb565b610a48565b60405161027b9190610f33565b60405180910390f35b34801561029057600080fd5b506102ab60048036038101906102a69190610d8f565b610afc565b005b4261012c6008546102be91906110d9565b106102fe576040517f08c379a00000000000000000000000000000000000000000000000000000000081526004016102f590611024565b60405180910390fd5b60008054906101000a900473ffffffffffffffffffffffffffffffffffffffff1673ffffffffffffffffffffffffffffffffffffffff163373ffffffffffffffffffffffffffffffffffffffff1614806103df57503373ffffffffffffffffffffffffffffffffffffffff1660026000600281106103a5577f4e487b7100000000000000000000000000000000000000000000000000000000600052603260045260246000fd5b0160009054906101000a900473ffffffffffffffffffffffffffffffffffffffff1673ffffffffffffffffffffffffffffffffffffffff16145b8061047157503373ffffffffffffffffffffffffffffffffffffffff166002600160028110610437577f4e487b7100000000000000000000000000000000000000000000000000000000600052603260045260246000fd5b0160009054906101000a900473ffffffffffffffffffffffffffffffffffffffff1673ffffffffffffffffffffffffffffffffffffffff16145b6104b0576040517f08c379a00000000000000000000000000000000000000000000000000000000081526004016104a790611064565b60405180910390fd5b6000600454116104f5576040517f08c379a00000000000000000000000000000000000000000000000000000000081526004016104ec90611004565b60405180910390fd5b6000600454610502610c90565b61050c919061128b565b90506000600560009054906101000a900473ffffffffffffffffffffffffffffffffffffffff1673ffffffffffffffffffffffffffffffffffffffff16639507d39a836040518263ffffffff1660e01b815260040161056b9190611084565b60206040518083038186803b15801561058357600080fd5b505afa158015610597573d6000803e3d6000fd5b505050506040513d601f19601f820116820180604052508101906105bb9190610d3d565b90506040516105c990610cc7565b604051809103906000f0801580156105e5573d6000803e3d6000fd5b50600560006101000a81548173ffffffffffffffffffffffffffffffffffffffff021916908373ffffffffffffffffffffffffffffffffffffffff160217905550426008819055506000600481905550600160009054906101000a900473ffffffffffffffffffffffffffffffffffffffff1673ffffffffffffffffffffffffffffffffffffffff1663a9059cbb826064605f6007546106859190611160565b61068f919061112f565b6040518363ffffffff1660e01b81526004016106ac929190610fa0565b602060405180830381600087803b1580156106c657600080fd5b505af11580156106da573d6000803e3d6000fd5b505050506040513d601f19601f820116820180604052508101906106fe9190610d66565b5060006007819055505050565b60065481565b60008054906101000a900473ffffffffffffffffffffffffffffffffffffffff1673ffffffffffffffffffffffffffffffffffffffff163373ffffffffffffffffffffffffffffffffffffffff161461079f576040517f08c379a000000000000000000000000000000000000000000000000000000000815260040161079690611044565b60405180910390fd5b670de0b6b3a7640000816107b39190611160565b60068190555050565b600281600281106107cc57600080fd5b016000915054906101000a900473ffffffffffffffffffffffffffffffffffffffff1681565b60075481565b60085481565b600160009054906101000a900473ffffffffffffffffffffffffffffffffffffffff1681565b60045481565b60008054906101000a900473ffffffffffffffffffffffffffffffffffffffff1681565b60008111610891576040517f08c379a000000000000000000000000000000000000000000000000000000000815260040161088890610fe4565b60405180910390fd5b600160009054906101000a900473ffffffffffffffffffffffffffffffffffffffff1673ffffffffffffffffffffffffffffffffffffffff166323b872dd3330846006546108df9190611160565b6040518463ffffffff1660e01b81526004016108fd93929190610f69565b602060405180830381600087803b15801561091757600080fd5b505af115801561092b573d6000803e3d6000fd5b505050506040513d601f19601f8201168201806040525081019061094f9190610d66565b508060065461095e9190611160565b60075461096b91906110d9565b600781905550600060045490505b8160045461098791906110d9565b811015610a3057600560009054906101000a900473ffffffffffffffffffffffffffffffffffffffff1673ffffffffffffffffffffffffffffffffffffffff16632f30c6f682336040518363ffffffff1660e01b81526004016109eb92919061109f565b600060405180830381600087803b158015610a0557600080fd5b505af1158015610a19573d6000803e3d6000fd5b505050508080610a2890611238565b915050610979565b5080600454610a3f91906110d9565b60048190555050565b6000600560009054906101000a900473ffffffffffffffffffffffffffffffffffffffff1673ffffffffffffffffffffffffffffffffffffffff16639507d39a836040518263ffffffff1660e01b8152600401610aa59190611084565b60206040518083038186803b158015610abd57600080fd5b505afa158015610ad1573d6000803e3d6000fd5b505050506040513d601f19601f82011682018060405250810190610af59190610d3d565b9050919050565b60008054906101000a900473ffffffffffffffffffffffffffffffffffffffff1673ffffffffffffffffffffffffffffffffffffffff163373ffffffffffffffffffffffffffffffffffffffff1614610b8a576040517f08c379a0000000000000000000000000000000000000000000000000000000008152600401610b8190611044565b60405180910390fd5b8115610c1057806002600060028110610bcc577f4e487b7100000000000000000000000000000000000000000000000000000000600052603260045260246000fd5b0160006101000a81548173ffffffffffffffffffffffffffffffffffffffff021916908373ffffffffffffffffffffffffffffffffffffffff160217905550610c8c565b806002600160028110610c4c577f4e487b7100000000000000000000000000000000000000000000000000000000600052603260045260246000fd5b0160006101000a81548173ffffffffffffffffffffffffffffffffffffffff021916908373ffffffffffffffffffffffffffffffffffffffff1602179055505b5050565b60004442600454604051602001610ca993929190610ef6565b6040516020818303038152906040528051906020012060001c905090565b6102ff8061142d83390190565b600081359050610ce3816113e7565b92915050565b600081519050610cf8816113e7565b92915050565b600081359050610d0d816113fe565b92915050565b600081519050610d22816113fe565b92915050565b600081359050610d3781611415565b92915050565b600060208284031215610d4f57600080fd5b6000610d5d84828501610ce9565b91505092915050565b600060208284031215610d7857600080fd5b6000610d8684828501610d13565b91505092915050565b60008060408385031215610da257600080fd5b6000610db085828601610cfe565b9250506020610dc185828601610cd4565b9150509250929050565b600060208284031215610ddd57600080fd5b6000610deb84828501610d28565b91505092915050565b610dfd816111cc565b82525050565b610e0c816111ba565b82525050565b610e1b81611214565b82525050565b6000610e2e601a836110c8565b9150610e398261131a565b602082019050919050565b6000610e51600e836110c8565b9150610e5c82611343565b602082019050919050565b6000610e746016836110c8565b9150610e7f8261136c565b602082019050919050565b6000610e976014836110c8565b9150610ea282611395565b602082019050919050565b6000610eba6015836110c8565b9150610ec5826113be565b602082019050919050565b610ed98161120a565b82525050565b610ef0610eeb8261120a565b611281565b82525050565b6000610f028286610edf565b602082019150610f128285610edf565b602082019150610f228284610edf565b602082019150819050949350505050565b6000602082019050610f486000830184610e03565b92915050565b6000602082019050610f636000830184610df4565b92915050565b6000606082019050610f7e6000830186610e03565b610f8b6020830185610e03565b610f986040830184610ed0565b949350505050565b6000604082019050610fb56000830185610e03565b610fc26020830184610ed0565b9392505050565b6000602082019050610fde6000830184610e12565b92915050565b60006020820190508181036000830152610ffd81610e21565b9050919050565b6000602082019050818103600083015261101d81610e44565b9050919050565b6000602082019050818103600083015261103d81610e67565b9050919050565b6000602082019050818103600083015261105d81610e8a565b9050919050565b6000602082019050818103600083015261107d81610ead565b9050919050565b60006020820190506110996000830184610ed0565b92915050565b60006040820190506110b46000830185610ed0565b6110c16020830184610e03565b9392505050565b600082825260208201905092915050565b60006110e48261120a565b91506110ef8361120a565b9250827fffffffffffffffffffffffffffffffffffffffffffffffffffffffffffffffff03821115611124576111236112bc565b5b828201905092915050565b600061113a8261120a565b91506111458361120a565b925082611155576111546112eb565b5b828204905092915050565b600061116b8261120a565b91506111768361120a565b9250817fffffffffffffffffffffffffffffffffffffffffffffffffffffffffffffffff04831182151516156111af576111ae6112bc565b5b828202905092915050565b60006111c5826111ea565b9050919050565b60006111d7826111ea565b9050919050565b60008115159050919050565b600073ffffffffffffffffffffffffffffffffffffffff82169050919050565b6000819050919050565b600061121f82611226565b9050919050565b6000611231826111ea565b9050919050565b60006112438261120a565b91507fffffffffffffffffffffffffffffffffffffffffffffffffffffffffffffffff821415611276576112756112bc565b5b600182019050919050565b6000819050919050565b60006112968261120a565b91506112a18361120a565b9250826112b1576112b06112eb565b5b828206905092915050565b7f4e487b7100000000000000000000000000000000000000000000000000000000600052601160045260246000fd5b7f4e487b7100000000000000000000000000000000000000000000000000000000600052601260045260246000fd5b7f4d7573742062792061746c65617374206f6e652074696b65742e000000000000600082015250565b7f4e6f206f6e6520656e7465726564000000000000000000000000000000000000600082015250565b7f35206d696e757465732068617320746f20706173732e00000000000000000000600082015250565b7f53656e646572206973206e6f74206f776e65722e000000000000000000000000600082015250565b7f53656e646572206973206e6f74206d616e616765720000000000000000000000600082015250565b6113f0816111ba565b81146113fb57600080fd5b50565b611407816111de565b811461141257600080fd5b50565b61141e8161120a565b811461142957600080fd5b5056fe608060405234801561001057600080fd5b506102df806100206000396000f3fe608060405234801561001057600080fd5b50600436106100415760003560e01c80632f30c6f6146100465780639507d39a14610062578063b30906d414610092575b600080fd5b610060600480360381019061005b91906101d9565b6100c2565b005b61007c600480360381019061007791906101b0565b610117565b6040516100899190610224565b60405180910390f35b6100ac60048036038101906100a791906101b0565b610153565b6040516100b99190610224565b60405180910390f35b8060008084815260200190815260200160002060006101000a81548173ffffffffffffffffffffffffffffffffffffffff021916908373ffffffffffffffffffffffffffffffffffffffff1602179055505050565b600080600083815260200190815260200160002060009054906101000a900473ffffffffffffffffffffffffffffffffffffffff169050919050565b60006020528060005260406000206000915054906101000a900473ffffffffffffffffffffffffffffffffffffffff1681565b6000813590506101958161027b565b92915050565b6000813590506101aa81610292565b92915050565b6000602082840312156101c257600080fd5b60006101d08482850161019b565b91505092915050565b600080604083850312156101ec57600080fd5b60006101fa8582860161019b565b925050602061020b85828601610186565b9150509250929050565b61021e8161023f565b82525050565b60006020820190506102396000830184610215565b92915050565b600061024a82610251565b9050919050565b600073ffffffffffffffffffffffffffffffffffffffff82169050919050565b6000819050919050565b6102848161023f565b811461028f57600080fd5b50565b61029b81610271565b81146102a657600080fd5b5056fea26469706673582212202932ff109ffbd7f0dd24bc810bcc0254d27d3ef6c8678c0278ecda17fcddda6164736f6c63430008020033a2646970667358221220321de02debba75cc4f6553ad9a2169c929de0d600cdd60e2d2de500bb597165b64736f6c63430008020033608060405234801561001057600080fd5b506102df806100206000396000f3fe608060405234801561001057600080fd5b50600436106100415760003560e01c80632f30c6f6146100465780639507d39a14610062578063b30906d414610092575b600080fd5b610060600480360381019061005b91906101d9565b6100c2565b005b61007c600480360381019061007791906101b0565b610117565b6040516100899190610224565b60405180910390f35b6100ac60048036038101906100a791906101b0565b610153565b6040516100b99190610224565b60405180910390f35b8060008084815260200190815260200160002060006101000a81548173ffffffffffffffffffffffffffffffffffffffff021916908373ffffffffffffffffffffffffffffffffffffffff1602179055505050565b600080600083815260200190815260200160002060009054906101000a900473ffffffffffffffffffffffffffffffffffffffff169050919050565b60006020528060005260406000206000915054906101000a900473ffffffffffffffffffffffffffffffffffffffff1681565b6000813590506101958161027b565b92915050565b6000813590506101aa81610292565b92915050565b6000602082840312156101c257600080fd5b60006101d08482850161019b565b91505092915050565b600080604083850312156101ec57600080fd5b60006101fa8582860161019b565b925050602061020b85828601610186565b9150509250929050565b61021e8161023f565b82525050565b60006020820190506102396000830184610215565b92915050565b600061024a82610251565b9050919050565b600073ffffffffffffffffffffffffffffffffffffffff82169050919050565b6000819050919050565b6102848161023f565b811461028f57600080fd5b50565b61029b81610271565b81146102a657600080fd5b5056fea26469706673582212202932ff109ffbd7f0dd24bc810bcc0254d27d3ef6c8678c0278ecda17fcddda6164736f6c63430008020033",
  "linkReferences": {},
  "deployedLinkReferences": {}
}