{
  "_format": "hh-sol-artifact-1",
  "contractName": "Lottery",
  "sourceName": "contracts/Lottery.sol",
  "abi": [
    {
      "inputs": [
        {
          "internalType": "contract IERC20",
          "name": "token",
          "type": "address"
        }
      ],
      "stateMutability": "nonpayable",
      "type": "constructor"
    },
    {
      "inputs": [],
      "name": "bbt",
      "outputs": [
        {
          "internalType": "contract IERC20",
          "name": "",
          "type": "address"
        }
      ],
      "stateMutability": "view",
      "type": "function"
    },
    {
      "inputs": [],
      "name": "draw",
      "outputs": [],
      "stateMutability": "nonpayable",
      "type": "function"
    },
    {
      "inputs": [
        {
          "internalType": "uint256",
          "name": "_totalTikets",
          "type": "uint256"
        }
      ],
      "name": "enter",
      "outputs": [],
      "stateMutability": "payable",
      "type": "function"
    },
    {
      "inputs": [
        {
          "internalType": "uint256",
          "name": "",
          "type": "uint256"
        }
      ],
      "name": "entries",
      "outputs": [
        {
          "internalType": "address",
          "name": "",
          "type": "address"
        }
      ],
      "stateMutability": "view",
      "type": "function"
    },
    {
      "inputs": [],
      "name": "lastDrawTime",
      "outputs": [
        {
          "internalType": "uint256",
          "name": "",
          "type": "uint256"
        }
      ],
      "stateMutability": "view",
      "type": "function"
    },
    {
      "inputs": [
        {
          "internalType": "uint256",
          "name": "",
          "type": "uint256"
        }
      ],
      "name": "managers",
      "outputs": [
        {
          "internalType": "address",
          "name": "",
          "type": "address"
        }
      ],
      "stateMutability": "view",
      "type": "function"
    },
    {
      "inputs": [],
      "name": "owner",
      "outputs": [
        {
          "internalType": "address payable",
          "name": "",
          "type": "address"
        }
      ],
      "stateMutability": "view",
      "type": "function"
    },
    {
      "inputs": [],
      "name": "pricePool",
      "outputs": [
        {
          "internalType": "uint256",
          "name": "",
          "type": "uint256"
        }
      ],
      "stateMutability": "view",
      "type": "function"
    },
    {
      "inputs": [
        {
          "internalType": "bool",
          "name": "firstManager",
          "type": "bool"
        },
        {
          "internalType": "address",
          "name": "newMaanagerAddress",
          "type": "address"
        }
      ],
      "name": "setManager",
      "outputs": [],
      "stateMutability": "nonpayable",
      "type": "function"
    },
    {
      "inputs": [
        {
          "internalType": "uint256",
          "name": "_ticketPrice",
          "type": "uint256"
        }
      ],
      "name": "setTicketPrice",
      "outputs": [],
      "stateMutability": "nonpayable",
      "type": "function"
    },
    {
      "inputs": [],
      "name": "ticketPrice",
      "outputs": [
        {
          "internalType": "uint256",
          "name": "",
          "type": "uint256"
        }
      ],
      "stateMutability": "view",
      "type": "function"
    }
  ],
  "bytecode": "0x60806040523480156200001157600080fd5b50604051620018bd380380620018bd833981810160405281019062000037919062000200565b620000836040518060400160405280601b81526020017f4465706c6f79696e67204c6f7474657274792e204f776e65723a200000000000815250336200011a60201b62000b071760201c565b336000806101000a81548173ffffffffffffffffffffffffffffffffffffffff021916908373ffffffffffffffffffffffffffffffffffffffff16021790555080600160006101000a81548173ffffffffffffffffffffffffffffffffffffffff021916908373ffffffffffffffffffffffffffffffffffffffff1602179055506019600581905550426007819055505062000377565b620001bc8282604051602401620001339291906200027e565b6040516020818303038152906040527f319af333000000000000000000000000000000000000000000000000000000007bffffffffffffffffffffffffffffffffffffffffffffffffffffffff19166020820180517bffffffffffffffffffffffffffffffffffffffffffffffffffffffff8381831617835250505050620001c060201b60201c565b5050565b60008151905060006a636f6e736f6c652e6c6f679050602083016000808483855afa5050505050565b600081519050620001fa816200035d565b92915050565b6000602082840312156200021357600080fd5b60006200022384828501620001e9565b91505092915050565b6200023781620002ce565b82525050565b60006200024a82620002b2565b620002568185620002bd565b93506200026881856020860162000316565b62000273816200034c565b840191505092915050565b600060408201905081810360008301526200029a81856200023d565b9050620002ab60208301846200022c565b9392505050565b600081519050919050565b600082825260208201905092915050565b6000620002db82620002f6565b9050919050565b6000620002ef82620002ce565b9050919050565b600073ffffffffffffffffffffffffffffffffffffffff82169050919050565b60005b838110156200033657808201518184015260208101905062000319565b8381111562000346576000848401525b50505050565b6000601f19601f8301169050919050565b6200036881620002e2565b81146200037457600080fd5b50565b61153680620003876000396000f3fe60806040526004361061009c5760003560e01c80635cbbd635116100645780635cbbd63514610174578063729274521461019f5780638da5cb5b146101ca578063a59f3e0c146101f5578063b30906d414610211578063d37c07621461024e5761009c565b80630eecae21146100a15780631209b1f6146100b857806315981650146100e35780633d39c2601461010c57806356b95e8814610149575b600080fd5b3480156100ad57600080fd5b506100b6610277565b005b3480156100c457600080fd5b506100cd610662565b6040516100da91906110c9565b60405180910390f35b3480156100ef57600080fd5b5061010a60048036038101906101059190610d62565b610668565b005b34801561011857600080fd5b50610133600480360381019061012e9190610d62565b610700565b6040516101409190610f68565b60405180910390f35b34801561015557600080fd5b5061015e610736565b60405161016b91906110c9565b60405180910390f35b34801561018057600080fd5b5061018961073c565b60405161019691906110c9565b60405180910390f35b3480156101ab57600080fd5b506101b4610742565b6040516101c19190610ffe565b60405180910390f35b3480156101d657600080fd5b506101df610768565b6040516101ec9190610f83565b60405180910390f35b61020f600480360381019061020a9190610d62565b61078c565b005b34801561021d57600080fd5b5061023860048036038101906102339190610d62565b610934565b6040516102459190610f68565b60405180910390f35b34801561025a57600080fd5b5061027560048036038101906102709190610d26565b610973565b005b4261012c6007546102889190611138565b106102c8576040517f08c379a00000000000000000000000000000000000000000000000000000000081526004016102bf90611069565b60405180910390fd5b60008054906101000a900473ffffffffffffffffffffffffffffffffffffffff1673ffffffffffffffffffffffffffffffffffffffff163373ffffffffffffffffffffffffffffffffffffffff1614806103a957503373ffffffffffffffffffffffffffffffffffffffff16600260006002811061036f577f4e487b7100000000000000000000000000000000000000000000000000000000600052603260045260246000fd5b0160009054906101000a900473ffffffffffffffffffffffffffffffffffffffff1673ffffffffffffffffffffffffffffffffffffffff16145b8061043b57503373ffffffffffffffffffffffffffffffffffffffff166002600160028110610401577f4e487b7100000000000000000000000000000000000000000000000000000000600052603260045260246000fd5b0160009054906101000a900473ffffffffffffffffffffffffffffffffffffffff1673ffffffffffffffffffffffffffffffffffffffff16145b61047a576040517f08c379a0000000000000000000000000000000000000000000000000000000008152600401610471906110a9565b60405180910390fd5b600060048054905061048a610ba3565b6104949190611357565b90506000600482815481106104d2577f4e487b7100000000000000000000000000000000000000000000000000000000600052603260045260246000fd5b9060005260206000200160009054906101000a900473ffffffffffffffffffffffffffffffffffffffff169050600067ffffffffffffffff811115610540577f4e487b7100000000000000000000000000000000000000000000000000000000600052604160045260246000fd5b60405190808252806020026020018201604052801561056e5781602001602082028036833780820191505090505b5060049080519060200190610584929190610c02565b5042600781905550600160009054906101000a900473ffffffffffffffffffffffffffffffffffffffff1673ffffffffffffffffffffffffffffffffffffffff1663a9059cbb826064605f6006546105dc91906111bf565b6105e6919061118e565b6040518363ffffffff1660e01b8152600401610603929190610fd5565b602060405180830381600087803b15801561061d57600080fd5b505af1158015610631573d6000803e3d6000fd5b505050506040513d601f19601f820116820180604052508101906106559190610cfd565b5060006006819055505050565b60055481565b60008054906101000a900473ffffffffffffffffffffffffffffffffffffffff1673ffffffffffffffffffffffffffffffffffffffff163373ffffffffffffffffffffffffffffffffffffffff16146106f6576040517f08c379a00000000000000000000000000000000000000000000000000000000081526004016106ed90611089565b60405180910390fd5b8060058190555050565b6002816002811061071057600080fd5b016000915054906101000a900473ffffffffffffffffffffffffffffffffffffffff1681565b60065481565b60075481565b600160009054906101000a900473ffffffffffffffffffffffffffffffffffffffff1681565b60008054906101000a900473ffffffffffffffffffffffffffffffffffffffff1681565b600081116107cf576040517f08c379a00000000000000000000000000000000000000000000000000000000081526004016107c690611049565b60405180910390fd5b600160009054906101000a900473ffffffffffffffffffffffffffffffffffffffff1673ffffffffffffffffffffffffffffffffffffffff166323b872dd33308460055461081d91906111bf565b6040518463ffffffff1660e01b815260040161083b93929190610f9e565b602060405180830381600087803b15801561085557600080fd5b505af1158015610869573d6000803e3d6000fd5b505050506040513d601f19601f8201168201806040525081019061088d9190610cfd565b508060055461089c91906111bf565b6006546108a99190611138565b60068190555060005b81811015610930576004339080600181540180825580915050600190039060005260206000200160009091909190916101000a81548173ffffffffffffffffffffffffffffffffffffffff021916908373ffffffffffffffffffffffffffffffffffffffff160217905550808061092890611304565b9150506108b2565b5050565b6004818154811061094457600080fd5b906000526020600020016000915054906101000a900473ffffffffffffffffffffffffffffffffffffffff1681565b60008054906101000a900473ffffffffffffffffffffffffffffffffffffffff1673ffffffffffffffffffffffffffffffffffffffff163373ffffffffffffffffffffffffffffffffffffffff1614610a01576040517f08c379a00000000000000000000000000000000000000000000000000000000081526004016109f890611089565b60405180910390fd5b8115610a8757806002600060028110610a43577f4e487b7100000000000000000000000000000000000000000000000000000000600052603260045260246000fd5b0160006101000a81548173ffffffffffffffffffffffffffffffffffffffff021916908373ffffffffffffffffffffffffffffffffffffffff160217905550610b03565b806002600160028110610ac3577f4e487b7100000000000000000000000000000000000000000000000000000000600052603260045260246000fd5b0160006101000a81548173ffffffffffffffffffffffffffffffffffffffff021916908373ffffffffffffffffffffffffffffffffffffffff1602179055505b5050565b610b9f8282604051602401610b1d929190611019565b6040516020818303038152906040527f319af333000000000000000000000000000000000000000000000000000000007bffffffffffffffffffffffffffffffffffffffffffffffffffffffff19166020820180517bffffffffffffffffffffffffffffffffffffffffffffffffffffffff8381831617835250505050610bd9565b5050565b600044426004604051602001610bbb93929190610f2f565b6040516020818303038152906040528051906020012060001c905090565b60008151905060006a636f6e736f6c652e6c6f679050602083016000808483855afa5050505050565b828054828255906000526020600020908101928215610c7b579160200282015b82811115610c7a5782518260006101000a81548173ffffffffffffffffffffffffffffffffffffffff021916908373ffffffffffffffffffffffffffffffffffffffff16021790555091602001919060010190610c22565b5b509050610c889190610c8c565b5090565b5b80821115610ca5576000816000905550600101610c8d565b5090565b600081359050610cb8816114bb565b92915050565b600081359050610ccd816114d2565b92915050565b600081519050610ce2816114d2565b92915050565b600081359050610cf7816114e9565b92915050565b600060208284031215610d0f57600080fd5b6000610d1d84828501610cd3565b91505092915050565b60008060408385031215610d3957600080fd5b6000610d4785828601610cbe565b9250506020610d5885828601610ca9565b9150509250929050565b600060208284031215610d7457600080fd5b6000610d8284828501610ce8565b91505092915050565b6000610d978383610dc1565b60208301905092915050565b610dac8161124b565b82525050565b610dbb81611239565b82525050565b610dca81611239565b82525050565b6000610ddb826110f9565b610de5818561111c565b9350610df0836110e4565b8060005b83811015610e2857610e05826113e6565b610e0f8882610d8b565b9750610e1a8361110f565b925050600181019050610df4565b5085935050505092915050565b610e3e81611293565b82525050565b6000610e4f82611104565b610e598185611127565b9350610e698185602086016112b7565b610e72816113f9565b840191505092915050565b6000610e8a601a83611127565b9150610e9582611417565b602082019050919050565b6000610ead601683611127565b9150610eb882611440565b602082019050919050565b6000610ed0601483611127565b9150610edb82611469565b602082019050919050565b6000610ef3601583611127565b9150610efe82611492565b602082019050919050565b610f1281611289565b82525050565b610f29610f2482611289565b61134d565b82525050565b6000610f3b8286610f18565b602082019150610f4b8285610f18565b602082019150610f5b8284610dd0565b9150819050949350505050565b6000602082019050610f7d6000830184610db2565b92915050565b6000602082019050610f986000830184610da3565b92915050565b6000606082019050610fb36000830186610db2565b610fc06020830185610db2565b610fcd6040830184610f09565b949350505050565b6000604082019050610fea6000830185610db2565b610ff76020830184610f09565b9392505050565b60006020820190506110136000830184610e35565b92915050565b600060408201905081810360008301526110338185610e44565b90506110426020830184610db2565b9392505050565b6000602082019050818103600083015261106281610e7d565b9050919050565b6000602082019050818103600083015261108281610ea0565b9050919050565b600060208201905081810360008301526110a281610ec3565b9050919050565b600060208201905081810360008301526110c281610ee6565b9050919050565b60006020820190506110de6000830184610f09565b92915050565b60008190508160005260206000209050919050565b600081549050919050565b600081519050919050565b6000600182019050919050565b600081905092915050565b600082825260208201905092915050565b600061114382611289565b915061114e83611289565b9250827fffffffffffffffffffffffffffffffffffffffffffffffffffffffffffffffff0382111561118357611182611388565b5b828201905092915050565b600061119982611289565b91506111a483611289565b9250826111b4576111b36113b7565b5b828204905092915050565b60006111ca82611289565b91506111d583611289565b9250817fffffffffffffffffffffffffffffffffffffffffffffffffffffffffffffffff048311821515161561120e5761120d611388565b5b828202905092915050565b600073ffffffffffffffffffffffffffffffffffffffff82169050919050565b600061124482611269565b9050919050565b600061125682611269565b9050919050565b60008115159050919050565b600073ffffffffffffffffffffffffffffffffffffffff82169050919050565b6000819050919050565b600061129e826112a5565b9050919050565b60006112b082611269565b9050919050565b60005b838110156112d55780820151818401526020810190506112ba565b838111156112e4576000848401525b50505050565b60006112fd6112f88361140a565b611219565b9050919050565b600061130f82611289565b91507fffffffffffffffffffffffffffffffffffffffffffffffffffffffffffffffff82141561134257611341611388565b5b600182019050919050565b6000819050919050565b600061136282611289565b915061136d83611289565b92508261137d5761137c6113b7565b5b828206905092915050565b7f4e487b7100000000000000000000000000000000000000000000000000000000600052601160045260246000fd5b7f4e487b7100000000000000000000000000000000000000000000000000000000600052601260045260246000fd5b60006113f282546112ea565b9050919050565b6000601f19601f8301169050919050565b60008160001c9050919050565b7f4d7573742062792061746c65617374206f6e652074696b65742e000000000000600082015250565b7f35206d696e757465732068617320746f20706173732e00000000000000000000600082015250565b7f53656e646572206973206e6f74206f776e65722e000000000000000000000000600082015250565b7f53656e646572206973206e6f74206d616e616765720000000000000000000000600082015250565b6114c481611239565b81146114cf57600080fd5b50565b6114db8161125d565b81146114e657600080fd5b50565b6114f281611289565b81146114fd57600080fd5b5056fea2646970667358221220cb104d2388eb9d0519870e8db3f6243c02ec52700a3b4f8468ab7233b64d2b8264736f6c63430008020033",
  "linkReferences": {},
  "deployedLinkReferences": {}
}