{
  "_format": "hh-sol-artifact-1",
  "contractName": "Lottery",
  "sourceName": "contracts/Lottery.sol",
  "abi": [
    {
      "inputs": [
        {
          "internalType": "contract IERC20",
          "name": "token",
          "type": "address"
        }
      ],
      "stateMutability": "nonpayable",
      "type": "constructor"
    },
    {
      "anonymous": false,
      "inputs": [
        {
          "indexed": true,
          "internalType": "address",
          "name": "previousOwner",
          "type": "address"
        },
        {
          "indexed": true,
          "internalType": "address",
          "name": "newOwner",
          "type": "address"
        }
      ],
      "name": "OwnershipTransferred",
      "type": "event"
    },
    {
      "anonymous": false,
      "inputs": [
        {
          "indexed": true,
          "internalType": "bytes32",
          "name": "role",
          "type": "bytes32"
        },
        {
          "indexed": true,
          "internalType": "bytes32",
          "name": "previousAdminRole",
          "type": "bytes32"
        },
        {
          "indexed": true,
          "internalType": "bytes32",
          "name": "newAdminRole",
          "type": "bytes32"
        }
      ],
      "name": "RoleAdminChanged",
      "type": "event"
    },
    {
      "anonymous": false,
      "inputs": [
        {
          "indexed": true,
          "internalType": "bytes32",
          "name": "role",
          "type": "bytes32"
        },
        {
          "indexed": true,
          "internalType": "address",
          "name": "account",
          "type": "address"
        },
        {
          "indexed": true,
          "internalType": "address",
          "name": "sender",
          "type": "address"
        }
      ],
      "name": "RoleGranted",
      "type": "event"
    },
    {
      "anonymous": false,
      "inputs": [
        {
          "indexed": true,
          "internalType": "bytes32",
          "name": "role",
          "type": "bytes32"
        },
        {
          "indexed": true,
          "internalType": "address",
          "name": "account",
          "type": "address"
        },
        {
          "indexed": true,
          "internalType": "address",
          "name": "sender",
          "type": "address"
        }
      ],
      "name": "RoleRevoked",
      "type": "event"
    },
    {
      "inputs": [],
      "name": "DEFAULT_ADMIN_ROLE",
      "outputs": [
        {
          "internalType": "bytes32",
          "name": "",
          "type": "bytes32"
        }
      ],
      "stateMutability": "view",
      "type": "function"
    },
    {
      "inputs": [],
      "name": "MANAGER_ROLE",
      "outputs": [
        {
          "internalType": "bytes32",
          "name": "",
          "type": "bytes32"
        }
      ],
      "stateMutability": "view",
      "type": "function"
    },
    {
      "inputs": [],
      "name": "OWNER_ROLE",
      "outputs": [
        {
          "internalType": "bytes32",
          "name": "",
          "type": "bytes32"
        }
      ],
      "stateMutability": "view",
      "type": "function"
    },
    {
      "inputs": [],
      "name": "bbt",
      "outputs": [
        {
          "internalType": "contract IERC20",
          "name": "",
          "type": "address"
        }
      ],
      "stateMutability": "view",
      "type": "function"
    },
    {
      "inputs": [],
      "name": "draw",
      "outputs": [],
      "stateMutability": "nonpayable",
      "type": "function"
    },
    {
      "inputs": [
        {
          "internalType": "uint256",
          "name": "_totalTikets",
          "type": "uint256"
        }
      ],
      "name": "enter",
      "outputs": [],
      "stateMutability": "payable",
      "type": "function"
    },
    {
      "inputs": [
        {
          "internalType": "uint256",
          "name": "",
          "type": "uint256"
        },
        {
          "internalType": "uint256",
          "name": "",
          "type": "uint256"
        }
      ],
      "name": "entries",
      "outputs": [
        {
          "internalType": "address",
          "name": "",
          "type": "address"
        }
      ],
      "stateMutability": "view",
      "type": "function"
    },
    {
      "inputs": [
        {
          "internalType": "uint256",
          "name": "lotteryIndex",
          "type": "uint256"
        },
        {
          "internalType": "uint256",
          "name": "entryIndex",
          "type": "uint256"
        }
      ],
      "name": "getEntry",
      "outputs": [
        {
          "internalType": "address",
          "name": "",
          "type": "address"
        }
      ],
      "stateMutability": "view",
      "type": "function"
    },
    {
      "inputs": [
        {
          "internalType": "bytes32",
          "name": "role",
          "type": "bytes32"
        }
      ],
      "name": "getRoleAdmin",
      "outputs": [
        {
          "internalType": "bytes32",
          "name": "",
          "type": "bytes32"
        }
      ],
      "stateMutability": "view",
      "type": "function"
    },
    {
      "inputs": [
        {
          "internalType": "bytes32",
          "name": "role",
          "type": "bytes32"
        },
        {
          "internalType": "address",
          "name": "account",
          "type": "address"
        }
      ],
      "name": "grantRole",
      "outputs": [],
      "stateMutability": "nonpayable",
      "type": "function"
    },
    {
      "inputs": [
        {
          "internalType": "bytes32",
          "name": "role",
          "type": "bytes32"
        },
        {
          "internalType": "address",
          "name": "account",
          "type": "address"
        }
      ],
      "name": "hasRole",
      "outputs": [
        {
          "internalType": "bool",
          "name": "",
          "type": "bool"
        }
      ],
      "stateMutability": "view",
      "type": "function"
    },
    {
      "inputs": [],
      "name": "lastDrawTime",
      "outputs": [
        {
          "internalType": "uint256",
          "name": "",
          "type": "uint256"
        }
      ],
      "stateMutability": "view",
      "type": "function"
    },
    {
      "inputs": [
        {
          "internalType": "uint256",
          "name": "",
          "type": "uint256"
        }
      ],
      "name": "managers",
      "outputs": [
        {
          "internalType": "address",
          "name": "",
          "type": "address"
        }
      ],
      "stateMutability": "view",
      "type": "function"
    },
    {
      "inputs": [],
      "name": "owner",
      "outputs": [
        {
          "internalType": "address",
          "name": "",
          "type": "address"
        }
      ],
      "stateMutability": "view",
      "type": "function"
    },
    {
      "inputs": [],
      "name": "pricePool",
      "outputs": [
        {
          "internalType": "uint256",
          "name": "",
          "type": "uint256"
        }
      ],
      "stateMutability": "view",
      "type": "function"
    },
    {
      "inputs": [],
      "name": "renounceOwnership",
      "outputs": [],
      "stateMutability": "nonpayable",
      "type": "function"
    },
    {
      "inputs": [
        {
          "internalType": "bytes32",
          "name": "role",
          "type": "bytes32"
        },
        {
          "internalType": "address",
          "name": "account",
          "type": "address"
        }
      ],
      "name": "renounceRole",
      "outputs": [],
      "stateMutability": "nonpayable",
      "type": "function"
    },
    {
      "inputs": [
        {
          "internalType": "bytes32",
          "name": "role",
          "type": "bytes32"
        },
        {
          "internalType": "address",
          "name": "account",
          "type": "address"
        }
      ],
      "name": "revokeRole",
      "outputs": [],
      "stateMutability": "nonpayable",
      "type": "function"
    },
    {
      "inputs": [
        {
          "internalType": "bool",
          "name": "isFirstManager",
          "type": "bool"
        },
        {
          "internalType": "address",
          "name": "newManagerAddress",
          "type": "address"
        }
      ],
      "name": "setManager",
      "outputs": [],
      "stateMutability": "nonpayable",
      "type": "function"
    },
    {
      "inputs": [
        {
          "internalType": "uint256",
          "name": "_ticketPrice",
          "type": "uint256"
        }
      ],
      "name": "setTicketPrice",
      "outputs": [],
      "stateMutability": "nonpayable",
      "type": "function"
    },
    {
      "inputs": [
        {
          "internalType": "bytes4",
          "name": "interfaceId",
          "type": "bytes4"
        }
      ],
      "name": "supportsInterface",
      "outputs": [
        {
          "internalType": "bool",
          "name": "",
          "type": "bool"
        }
      ],
      "stateMutability": "view",
      "type": "function"
    },
    {
      "inputs": [],
      "name": "ticketPrice",
      "outputs": [
        {
          "internalType": "uint256",
          "name": "",
          "type": "uint256"
        }
      ],
      "stateMutability": "view",
      "type": "function"
    },
    {
      "inputs": [],
      "name": "totalEntries",
      "outputs": [
        {
          "internalType": "uint256",
          "name": "",
          "type": "uint256"
        }
      ],
      "stateMutability": "view",
      "type": "function"
    },
    {
      "inputs": [],
      "name": "totalLotteries",
      "outputs": [
        {
          "internalType": "uint256",
          "name": "",
          "type": "uint256"
        }
      ],
      "stateMutability": "view",
      "type": "function"
    },
    {
      "inputs": [
        {
          "internalType": "address",
          "name": "newOwner",
          "type": "address"
        }
      ],
      "name": "transferOwnership",
      "outputs": [],
      "stateMutability": "nonpayable",
      "type": "function"
    }
  ],
  "bytecode": "0x6080604052600060055560006006553480156200001b57600080fd5b50604051620032ff380380620032ff833981810160405281019062000041919062000835565b62000061620000556200015660201b60201c565b6200015e60201b60201c565b80600460006101000a81548173ffffffffffffffffffffffffffffffffffffffff021916908373ffffffffffffffffffffffffffffffffffffffff16021790555068015af1d78b58c4000060088190555042600a81905550620000eb7f241ecf16d79d0f8dbfb92cbc07fe17840425976cf0667f022fe9877caa831b08336200022260201b60201c565b6200011d7f241ecf16d79d0f8dbfb92cbc07fe17840425976cf0667f022fe9877caa831b08806200031360201b60201c565b6200014f7f241ecf16d79d0f8dbfb92cbc07fe17840425976cf0667f022fe9877caa831b08336200037760201b60201c565b5062000c47565b600033905090565b60008060009054906101000a900473ffffffffffffffffffffffffffffffffffffffff169050816000806101000a81548173ffffffffffffffffffffffffffffffffffffffff021916908373ffffffffffffffffffffffffffffffffffffffff1602179055508173ffffffffffffffffffffffffffffffffffffffff168173ffffffffffffffffffffffffffffffffffffffff167f8be0079c531659141344cd1fd0a4f28419497f9722a3daafe3b4186f6b6457e060405160405180910390a35050565b620002348282620003c060201b60201c565b6200030f57600180600084815260200190815260200160002060000160008373ffffffffffffffffffffffffffffffffffffffff1673ffffffffffffffffffffffffffffffffffffffff16815260200190815260200160002060006101000a81548160ff021916908315150217905550620002b46200015660201b60201c565b73ffffffffffffffffffffffffffffffffffffffff168173ffffffffffffffffffffffffffffffffffffffff16837f2f8788117e7eff1d82e926ec794901d17c78024a50270940304540a733656f0d60405160405180910390a45b5050565b600062000326836200042b60201b60201c565b90508160016000858152602001908152602001600020600101819055508181847fbd79b86ffe0ab8e8776151514217cd7cacd52c909f66475c3af44e129f0b00ff60405160405180910390a4505050565b62000388826200042b60201b60201c565b620003a9816200039d6200015660201b60201c565b6200044b60201b60201c565b620003bb83836200022260201b60201c565b505050565b60006001600084815260200190815260200160002060000160008373ffffffffffffffffffffffffffffffffffffffff1673ffffffffffffffffffffffffffffffffffffffff16815260200190815260200160002060009054906101000a900460ff16905092915050565b600060016000838152602001908152602001600020600101549050919050565b6200045d8282620003c060201b60201c565b6200050b57620004908173ffffffffffffffffffffffffffffffffffffffff1660146200050f60201b620013b01760201c565b620004ab8360001c60206200050f60201b620013b01760201c565b604051602001620004be9291906200094e565b6040516020818303038152906040526040517f08c379a000000000000000000000000000000000000000000000000000000000815260040162000502919062000990565b60405180910390fd5b5050565b60606000600283600262000524919062000a5a565b620005309190620009fd565b67ffffffffffffffff81111562000570577f4e487b7100000000000000000000000000000000000000000000000000000000600052604160045260246000fd5b6040519080825280601f01601f191660200182016040528015620005a35781602001600182028036833780820191505090505b5090507f30000000000000000000000000000000000000000000000000000000000000008160008151811062000602577f4e487b7100000000000000000000000000000000000000000000000000000000600052603260045260246000fd5b60200101907effffffffffffffffffffffffffffffffffffffffffffffffffffffffffffff1916908160001a9053507f7800000000000000000000000000000000000000000000000000000000000000816001815181106200068d577f4e487b7100000000000000000000000000000000000000000000000000000000600052603260045260246000fd5b60200101907effffffffffffffffffffffffffffffffffffffffffffffffffffffffffffff1916908160001a90535060006001846002620006cf919062000a5a565b620006db9190620009fd565b90505b6001811115620007cd577f3031323334353637383961626364656600000000000000000000000000000000600f86166010811062000745577f4e487b7100000000000000000000000000000000000000000000000000000000600052603260045260246000fd5b1a60f81b82828151811062000783577f4e487b7100000000000000000000000000000000000000000000000000000000600052603260045260246000fd5b60200101907effffffffffffffffffffffffffffffffffffffffffffffffffffffffffffff1916908160001a905350600485901c945080620007c59062000b43565b9050620006de565b506000841462000814576040517f08c379a00000000000000000000000000000000000000000000000000000000081526004016200080b90620009b4565b60405180910390fd5b8091505092915050565b6000815190506200082f8162000c2d565b92915050565b6000602082840312156200084857600080fd5b600062000858848285016200081e565b91505092915050565b60006200086e82620009d6565b6200087a8185620009e1565b93506200088c81856020860162000b0d565b620008978162000ba1565b840191505092915050565b6000620008af82620009d6565b620008bb8185620009f2565b9350620008cd81856020860162000b0d565b80840191505092915050565b6000620008e8602083620009e1565b9150620008f58262000bb2565b602082019050919050565b60006200090f601783620009f2565b91506200091c8262000bdb565b601782019050919050565b600062000936601183620009f2565b9150620009438262000c04565b601182019050919050565b60006200095b8262000900565b9150620009698285620008a2565b9150620009768262000927565b9150620009848284620008a2565b91508190509392505050565b60006020820190508181036000830152620009ac818462000861565b905092915050565b60006020820190508181036000830152620009cf81620008d9565b9050919050565b600081519050919050565b600082825260208201905092915050565b600081905092915050565b600062000a0a8262000b03565b915062000a178362000b03565b9250827fffffffffffffffffffffffffffffffffffffffffffffffffffffffffffffffff0382111562000a4f5762000a4e62000b72565b5b828201905092915050565b600062000a678262000b03565b915062000a748362000b03565b9250817fffffffffffffffffffffffffffffffffffffffffffffffffffffffffffffffff048311821515161562000ab05762000aaf62000b72565b5b828202905092915050565b600062000ac88262000ae3565b9050919050565b600062000adc8262000abb565b9050919050565b600073ffffffffffffffffffffffffffffffffffffffff82169050919050565b6000819050919050565b60005b8381101562000b2d57808201518184015260208101905062000b10565b8381111562000b3d576000848401525b50505050565b600062000b508262000b03565b9150600082141562000b675762000b6662000b72565b5b600182039050919050565b7f4e487b7100000000000000000000000000000000000000000000000000000000600052601160045260246000fd5b6000601f19601f8301169050919050565b7f537472696e67733a20686578206c656e67746820696e73756666696369656e74600082015250565b7f416363657373436f6e74726f6c3a206163636f756e7420000000000000000000600082015250565b7f206973206d697373696e6720726f6c6520000000000000000000000000000000600082015250565b62000c388162000acf565b811462000c4457600080fd5b50565b6126a88062000c576000396000f3fe6080604052600436106101665760003560e01c806372927452116100d1578063a59f3e0c1161008a578063e58378bb11610064578063e58378bb1461051d578063ec87621c14610548578063f2fde38b14610573578063f530bcab1461059c57610166565b8063a59f3e0c146104af578063d37c0762146104cb578063d547741f146104f457610166565b806372927452146103895780637fef036e146103b45780638da5cb5b146103df57806391d148541461040a57806398ba676d14610447578063a217fddf1461048457610166565b80632f2ff15d116101235780632f2ff15d1461028d57806336568abe146102b65780633d39c260146102df57806356b95e881461031c5780635cbbd63514610347578063715018a61461037257610166565b806301ffc9a71461016b5780630eecae21146101a85780631209b1f6146101bf57806315981650146101ea57806317b937e614610213578063248a9ca314610250575b600080fd5b34801561017757600080fd5b50610192600480360381019061018d9190611be7565b6105c7565b60405161019f9190611f91565b60405180910390f35b3480156101b457600080fd5b506101bd610641565b005b3480156101cb57600080fd5b506101d46108e0565b6040516101e19190612104565b60405180910390f35b3480156101f657600080fd5b50610211600480360381019061020c9190611c10565b6108e6565b005b34801561021f57600080fd5b5061023a60048036038101906102359190611c39565b61097f565b6040516102479190611f16565b60405180910390f35b34801561025c57600080fd5b5061027760048036038101906102729190611b82565b6109c1565b6040516102849190611fac565b60405180910390f35b34801561029957600080fd5b506102b460048036038101906102af9190611bab565b6109e1565b005b3480156102c257600080fd5b506102dd60048036038101906102d89190611bab565b610a0a565b005b3480156102eb57600080fd5b5061030660048036038101906103019190611c10565b610a8d565b6040516103139190611f16565b60405180910390f35b34801561032857600080fd5b50610331610ac3565b60405161033e9190612104565b60405180910390f35b34801561035357600080fd5b5061035c610ac9565b6040516103699190612104565b60405180910390f35b34801561037e57600080fd5b50610387610acf565b005b34801561039557600080fd5b5061039e610b57565b6040516103ab9190611fc7565b60405180910390f35b3480156103c057600080fd5b506103c9610b7d565b6040516103d69190612104565b60405180910390f35b3480156103eb57600080fd5b506103f4610b83565b6040516104019190611f16565b60405180910390f35b34801561041657600080fd5b50610431600480360381019061042c9190611bab565b610bac565b60405161043e9190611f91565b60405180910390f35b34801561045357600080fd5b5061046e60048036038101906104699190611c39565b610c17565b60405161047b9190611f16565b60405180910390f35b34801561049057600080fd5b50610499610c66565b6040516104a69190611fac565b60405180910390f35b6104c960048036038101906104c49190611c10565b610c6d565b005b3480156104d757600080fd5b506104f260048036038101906104ed9190611b46565b610e3d565b005b34801561050057600080fd5b5061051b60048036038101906105169190611bab565b611241565b005b34801561052957600080fd5b5061053261126a565b60405161053f9190611fac565b60405180910390f35b34801561055457600080fd5b5061055d61128e565b60405161056a9190611fac565b60405180910390f35b34801561057f57600080fd5b5061059a60048036038101906105959190611af4565b6112b2565b005b3480156105a857600080fd5b506105b16113aa565b6040516105be9190612104565b60405180910390f35b60007f7965db0b000000000000000000000000000000000000000000000000000000007bffffffffffffffffffffffffffffffffffffffffffffffffffffffff1916827bffffffffffffffffffffffffffffffffffffffffffffffffffffffff1916148061063a5750610639826116aa565b5b9050919050565b4261012c600a546106529190612146565b10610692576040517f08c379a000000000000000000000000000000000000000000000000000000000815260040161068990612084565b60405180910390fd5b6106bc7f241ecf16d79d0f8dbfb92cbc07fe17840425976cf0667f022fe9877caa831b0833610bac565b806106f957503373ffffffffffffffffffffffffffffffffffffffff166106e1610b83565b73ffffffffffffffffffffffffffffffffffffffff16145b610738576040517f08c379a000000000000000000000000000000000000000000000000000000000815260040161072f906120c4565b60405180910390fd5b60006006541161077d576040517f08c379a000000000000000000000000000000000000000000000000000000000815260040161077490612064565b60405180910390fd5b600060065461078a611714565b6107949190612379565b90506000600760006005548152602001908152602001600020600083815260200190815260200160002060009054906101000a900473ffffffffffffffffffffffffffffffffffffffff16905042600a8190555060006006819055506001600560008282546108039190612146565b92505081905550600460009054906101000a900473ffffffffffffffffffffffffffffffffffffffff1673ffffffffffffffffffffffffffffffffffffffff1663a9059cbb826064605f60095461085a91906121cd565b610864919061219c565b6040518363ffffffff1660e01b8152600401610881929190611f68565b602060405180830381600087803b15801561089b57600080fd5b505af11580156108af573d6000803e3d6000fd5b505050506040513d601f19601f820116820180604052508101906108d39190611b1d565b5060006009819055505050565b60085481565b6108ee61174b565b73ffffffffffffffffffffffffffffffffffffffff1661090c610b83565b73ffffffffffffffffffffffffffffffffffffffff1614610962576040517f08c379a0000000000000000000000000000000000000000000000000000000008152600401610959906120a4565b60405180910390fd5b670de0b6b3a76400008161097691906121cd565b60088190555050565b60076020528160005260406000206020528060005260406000206000915091509054906101000a900473ffffffffffffffffffffffffffffffffffffffff1681565b600060016000838152602001908152602001600020600101549050919050565b6109ea826109c1565b6109fb816109f661174b565b611753565b610a0583836117f0565b505050565b610a1261174b565b73ffffffffffffffffffffffffffffffffffffffff168173ffffffffffffffffffffffffffffffffffffffff1614610a7f576040517f08c379a0000000000000000000000000000000000000000000000000000000008152600401610a76906120e4565b60405180910390fd5b610a8982826118d0565b5050565b60028160028110610a9d57600080fd5b016000915054906101000a900473ffffffffffffffffffffffffffffffffffffffff1681565b60095481565b600a5481565b610ad761174b565b73ffffffffffffffffffffffffffffffffffffffff16610af5610b83565b73ffffffffffffffffffffffffffffffffffffffff1614610b4b576040517f08c379a0000000000000000000000000000000000000000000000000000000008152600401610b42906120a4565b60405180910390fd5b610b5560006119b2565b565b600460009054906101000a900473ffffffffffffffffffffffffffffffffffffffff1681565b60065481565b60008060009054906101000a900473ffffffffffffffffffffffffffffffffffffffff16905090565b60006001600084815260200190815260200160002060000160008373ffffffffffffffffffffffffffffffffffffffff1673ffffffffffffffffffffffffffffffffffffffff16815260200190815260200160002060009054906101000a900460ff16905092915050565b600060076000848152602001908152602001600020600083815260200190815260200160002060009054906101000a900473ffffffffffffffffffffffffffffffffffffffff16905092915050565b6000801b81565b60008111610cb0576040517f08c379a0000000000000000000000000000000000000000000000000000000008152600401610ca790612024565b60405180910390fd5b600460009054906101000a900473ffffffffffffffffffffffffffffffffffffffff1673ffffffffffffffffffffffffffffffffffffffff166323b872dd333084600854610cfe91906121cd565b6040518463ffffffff1660e01b8152600401610d1c93929190611f31565b602060405180830381600087803b158015610d3657600080fd5b505af1158015610d4a573d6000803e3d6000fd5b505050506040513d601f19601f82011682018060405250810190610d6e9190611b1d565b5080600854610d7d91906121cd565b600954610d8a9190612146565b600981905550600060065490505b81600654610da69190612146565b811015610e255733600760006005548152602001908152602001600020600083815260200190815260200160002060006101000a81548173ffffffffffffffffffffffffffffffffffffffff021916908373ffffffffffffffffffffffffffffffffffffffff1602179055508080610e1d90612326565b915050610d98565b5080600654610e349190612146565b60068190555050565b610e4561174b565b73ffffffffffffffffffffffffffffffffffffffff16610e63610b83565b73ffffffffffffffffffffffffffffffffffffffff1614610eb9576040517f08c379a0000000000000000000000000000000000000000000000000000000008152600401610eb0906120a4565b60405180910390fd5b8115611080576002600060028110610efa577f4e487b7100000000000000000000000000000000000000000000000000000000600052603260045260246000fd5b0160009054906101000a900473ffffffffffffffffffffffffffffffffffffffff1673ffffffffffffffffffffffffffffffffffffffff16600073ffffffffffffffffffffffffffffffffffffffff1614610fd657610fd57f241ecf16d79d0f8dbfb92cbc07fe17840425976cf0667f022fe9877caa831b086002600060028110610fae577f4e487b7100000000000000000000000000000000000000000000000000000000600052603260045260246000fd5b0160009054906101000a900473ffffffffffffffffffffffffffffffffffffffff16611241565b5b6110007f241ecf16d79d0f8dbfb92cbc07fe17840425976cf0667f022fe9877caa831b08826109e1565b80600260006002811061103c577f4e487b7100000000000000000000000000000000000000000000000000000000600052603260045260246000fd5b0160006101000a81548173ffffffffffffffffffffffffffffffffffffffff021916908373ffffffffffffffffffffffffffffffffffffffff16021790555061123d565b60026000600281106110bb577f4e487b7100000000000000000000000000000000000000000000000000000000600052603260045260246000fd5b0160009054906101000a900473ffffffffffffffffffffffffffffffffffffffff1673ffffffffffffffffffffffffffffffffffffffff16600073ffffffffffffffffffffffffffffffffffffffff1614611197576111967f241ecf16d79d0f8dbfb92cbc07fe17840425976cf0667f022fe9877caa831b08600260016002811061116f577f4e487b7100000000000000000000000000000000000000000000000000000000600052603260045260246000fd5b0160009054906101000a900473ffffffffffffffffffffffffffffffffffffffff16611241565b5b6111c17f241ecf16d79d0f8dbfb92cbc07fe17840425976cf0667f022fe9877caa831b08826109e1565b8060026001600281106111fd577f4e487b7100000000000000000000000000000000000000000000000000000000600052603260045260246000fd5b0160006101000a81548173ffffffffffffffffffffffffffffffffffffffff021916908373ffffffffffffffffffffffffffffffffffffffff1602179055505b5050565b61124a826109c1565b61125b8161125661174b565b611753565b61126583836118d0565b505050565b7f241ecf16d79d0f8dbfb92cbc07fe17840425976cf0667f022fe9877caa831b0881565b7f241ecf16d79d0f8dbfb92cbc07fe17840425976cf0667f022fe9877caa831b0881565b6112ba61174b565b73ffffffffffffffffffffffffffffffffffffffff166112d8610b83565b73ffffffffffffffffffffffffffffffffffffffff161461132e576040517f08c379a0000000000000000000000000000000000000000000000000000000008152600401611325906120a4565b60405180910390fd5b600073ffffffffffffffffffffffffffffffffffffffff168173ffffffffffffffffffffffffffffffffffffffff16141561139e576040517f08c379a000000000000000000000000000000000000000000000000000000000815260040161139590612044565b60405180910390fd5b6113a7816119b2565b50565b60055481565b6060600060028360026113c391906121cd565b6113cd9190612146565b67ffffffffffffffff81111561140c577f4e487b7100000000000000000000000000000000000000000000000000000000600052604160045260246000fd5b6040519080825280601f01601f19166020018201604052801561143e5781602001600182028036833780820191505090505b5090507f30000000000000000000000000000000000000000000000000000000000000008160008151811061149c577f4e487b7100000000000000000000000000000000000000000000000000000000600052603260045260246000fd5b60200101907effffffffffffffffffffffffffffffffffffffffffffffffffffffffffffff1916908160001a9053507f780000000000000000000000000000000000000000000000000000000000000081600181518110611526577f4e487b7100000000000000000000000000000000000000000000000000000000600052603260045260246000fd5b60200101907effffffffffffffffffffffffffffffffffffffffffffffffffffffffffffff1916908160001a9053506000600184600261156691906121cd565b6115709190612146565b90505b600181111561165c577f3031323334353637383961626364656600000000000000000000000000000000600f8616601081106115d8577f4e487b7100000000000000000000000000000000000000000000000000000000600052603260045260246000fd5b1a60f81b828281518110611615577f4e487b7100000000000000000000000000000000000000000000000000000000600052603260045260246000fd5b60200101907effffffffffffffffffffffffffffffffffffffffffffffffffffffffffffff1916908160001a905350600485901c945080611655906122fc565b9050611573565b50600084146116a0576040517f08c379a000000000000000000000000000000000000000000000000000000000815260040161169790612004565b60405180910390fd5b8091505092915050565b60007f01ffc9a7000000000000000000000000000000000000000000000000000000007bffffffffffffffffffffffffffffffffffffffffffffffffffffffff1916827bffffffffffffffffffffffffffffffffffffffffffffffffffffffff1916149050919050565b6000444260065460405160200161172d93929190611ed9565b6040516020818303038152906040528051906020012060001c905090565b600033905090565b61175d8282610bac565b6117ec576117828173ffffffffffffffffffffffffffffffffffffffff1660146113b0565b6117908360001c60206113b0565b6040516020016117a1929190611e9f565b6040516020818303038152906040526040517f08c379a00000000000000000000000000000000000000000000000000000000081526004016117e39190611fe2565b60405180910390fd5b5050565b6117fa8282610bac565b6118cc57600180600084815260200190815260200160002060000160008373ffffffffffffffffffffffffffffffffffffffff1673ffffffffffffffffffffffffffffffffffffffff16815260200190815260200160002060006101000a81548160ff02191690831515021790555061187161174b565b73ffffffffffffffffffffffffffffffffffffffff168173ffffffffffffffffffffffffffffffffffffffff16837f2f8788117e7eff1d82e926ec794901d17c78024a50270940304540a733656f0d60405160405180910390a45b5050565b6118da8282610bac565b156119ae5760006001600084815260200190815260200160002060000160008373ffffffffffffffffffffffffffffffffffffffff1673ffffffffffffffffffffffffffffffffffffffff16815260200190815260200160002060006101000a81548160ff02191690831515021790555061195361174b565b73ffffffffffffffffffffffffffffffffffffffff168173ffffffffffffffffffffffffffffffffffffffff16837ff6391f5c32d9c69d2a47ea670b442974b53935d1edc7fd64eb21e047a839171b60405160405180910390a45b5050565b60008060009054906101000a900473ffffffffffffffffffffffffffffffffffffffff169050816000806101000a81548173ffffffffffffffffffffffffffffffffffffffff021916908373ffffffffffffffffffffffffffffffffffffffff1602179055508173ffffffffffffffffffffffffffffffffffffffff168173ffffffffffffffffffffffffffffffffffffffff167f8be0079c531659141344cd1fd0a4f28419497f9722a3daafe3b4186f6b6457e060405160405180910390a35050565b600081359050611a85816125ff565b92915050565b600081359050611a9a81612616565b92915050565b600081519050611aaf81612616565b92915050565b600081359050611ac48161262d565b92915050565b600081359050611ad981612644565b92915050565b600081359050611aee8161265b565b92915050565b600060208284031215611b0657600080fd5b6000611b1484828501611a76565b91505092915050565b600060208284031215611b2f57600080fd5b6000611b3d84828501611aa0565b91505092915050565b60008060408385031215611b5957600080fd5b6000611b6785828601611a8b565b9250506020611b7885828601611a76565b9150509250929050565b600060208284031215611b9457600080fd5b6000611ba284828501611ab5565b91505092915050565b60008060408385031215611bbe57600080fd5b6000611bcc85828601611ab5565b9250506020611bdd85828601611a76565b9150509250929050565b600060208284031215611bf957600080fd5b6000611c0784828501611aca565b91505092915050565b600060208284031215611c2257600080fd5b6000611c3084828501611adf565b91505092915050565b60008060408385031215611c4c57600080fd5b6000611c5a85828601611adf565b9250506020611c6b85828601611adf565b9150509250929050565b611c7e81612227565b82525050565b611c8d81612239565b82525050565b611c9c81612245565b82525050565b611cab816122a5565b82525050565b6000611cbc8261211f565b611cc6818561212a565b9350611cd68185602086016122c9565b611cdf81612408565b840191505092915050565b6000611cf58261211f565b611cff818561213b565b9350611d0f8185602086016122c9565b80840191505092915050565b6000611d2860208361212a565b9150611d3382612419565b602082019050919050565b6000611d4b601a8361212a565b9150611d5682612442565b602082019050919050565b6000611d6e60268361212a565b9150611d798261246b565b604082019050919050565b6000611d91600e8361212a565b9150611d9c826124ba565b602082019050919050565b6000611db460168361212a565b9150611dbf826124e3565b602082019050919050565b6000611dd760208361212a565b9150611de28261250c565b602082019050919050565b6000611dfa60178361213b565b9150611e0582612535565b601782019050919050565b6000611e1d60158361212a565b9150611e288261255e565b602082019050919050565b6000611e4060118361213b565b9150611e4b82612587565b601182019050919050565b6000611e63602f8361212a565b9150611e6e826125b0565b604082019050919050565b611e828161229b565b82525050565b611e99611e948261229b565b61236f565b82525050565b6000611eaa82611ded565b9150611eb68285611cea565b9150611ec182611e33565b9150611ecd8284611cea565b91508190509392505050565b6000611ee58286611e88565b602082019150611ef58285611e88565b602082019150611f058284611e88565b602082019150819050949350505050565b6000602082019050611f2b6000830184611c75565b92915050565b6000606082019050611f466000830186611c75565b611f536020830185611c75565b611f606040830184611e79565b949350505050565b6000604082019050611f7d6000830185611c75565b611f8a6020830184611e79565b9392505050565b6000602082019050611fa66000830184611c84565b92915050565b6000602082019050611fc16000830184611c93565b92915050565b6000602082019050611fdc6000830184611ca2565b92915050565b60006020820190508181036000830152611ffc8184611cb1565b905092915050565b6000602082019050818103600083015261201d81611d1b565b9050919050565b6000602082019050818103600083015261203d81611d3e565b9050919050565b6000602082019050818103600083015261205d81611d61565b9050919050565b6000602082019050818103600083015261207d81611d84565b9050919050565b6000602082019050818103600083015261209d81611da7565b9050919050565b600060208201905081810360008301526120bd81611dca565b9050919050565b600060208201905081810360008301526120dd81611e10565b9050919050565b600060208201905081810360008301526120fd81611e56565b9050919050565b60006020820190506121196000830184611e79565b92915050565b600081519050919050565b600082825260208201905092915050565b600081905092915050565b60006121518261229b565b915061215c8361229b565b9250827fffffffffffffffffffffffffffffffffffffffffffffffffffffffffffffffff03821115612191576121906123aa565b5b828201905092915050565b60006121a78261229b565b91506121b28361229b565b9250826121c2576121c16123d9565b5b828204905092915050565b60006121d88261229b565b91506121e38361229b565b9250817fffffffffffffffffffffffffffffffffffffffffffffffffffffffffffffffff048311821515161561221c5761221b6123aa565b5b828202905092915050565b60006122328261227b565b9050919050565b60008115159050919050565b6000819050919050565b60007fffffffff0000000000000000000000000000000000000000000000000000000082169050919050565b600073ffffffffffffffffffffffffffffffffffffffff82169050919050565b6000819050919050565b60006122b0826122b7565b9050919050565b60006122c28261227b565b9050919050565b60005b838110156122e75780820151818401526020810190506122cc565b838111156122f6576000848401525b50505050565b60006123078261229b565b9150600082141561231b5761231a6123aa565b5b600182039050919050565b60006123318261229b565b91507fffffffffffffffffffffffffffffffffffffffffffffffffffffffffffffffff821415612364576123636123aa565b5b600182019050919050565b6000819050919050565b60006123848261229b565b915061238f8361229b565b92508261239f5761239e6123d9565b5b828206905092915050565b7f4e487b7100000000000000000000000000000000000000000000000000000000600052601160045260246000fd5b7f4e487b7100000000000000000000000000000000000000000000000000000000600052601260045260246000fd5b6000601f19601f8301169050919050565b7f537472696e67733a20686578206c656e67746820696e73756666696369656e74600082015250565b7f4d7573742062792061746c65617374206f6e652074696b65742e000000000000600082015250565b7f4f776e61626c653a206e6577206f776e657220697320746865207a65726f206160008201527f6464726573730000000000000000000000000000000000000000000000000000602082015250565b7f4e6f206f6e6520656e7465726564000000000000000000000000000000000000600082015250565b7f35206d696e757465732068617320746f20706173732e00000000000000000000600082015250565b7f4f776e61626c653a2063616c6c6572206973206e6f7420746865206f776e6572600082015250565b7f416363657373436f6e74726f6c3a206163636f756e7420000000000000000000600082015250565b7f53656e646572206973206e6f74206d616e616765720000000000000000000000600082015250565b7f206973206d697373696e6720726f6c6520000000000000000000000000000000600082015250565b7f416363657373436f6e74726f6c3a2063616e206f6e6c792072656e6f756e636560008201527f20726f6c657320666f722073656c660000000000000000000000000000000000602082015250565b61260881612227565b811461261357600080fd5b50565b61261f81612239565b811461262a57600080fd5b50565b61263681612245565b811461264157600080fd5b50565b61264d8161224f565b811461265857600080fd5b50565b6126648161229b565b811461266f57600080fd5b5056fea264697066735822122023b84e4cef7ef6043463581181ea973930f6025fb09d38a5f1a7407ee39b97d464736f6c63430008020033",
  "linkReferences": {},
  "deployedLinkReferences": {}
}