{
  "_format": "hh-sol-artifact-1",
  "contractName": "Lottery",
  "sourceName": "contracts/Lottery.sol",
  "abi": [
    {
      "inputs": [
        {
          "internalType": "contract IERC20",
          "name": "token",
          "type": "address"
        }
      ],
      "stateMutability": "nonpayable",
      "type": "constructor"
    },
    {
      "inputs": [],
      "name": "bbt",
      "outputs": [
        {
          "internalType": "contract IERC20",
          "name": "",
          "type": "address"
        }
      ],
      "stateMutability": "view",
      "type": "function"
    },
    {
      "inputs": [],
      "name": "draw",
      "outputs": [],
      "stateMutability": "nonpayable",
      "type": "function"
    },
    {
      "inputs": [
        {
          "internalType": "uint256",
          "name": "_totalTikets",
          "type": "uint256"
        }
      ],
      "name": "enter",
      "outputs": [],
      "stateMutability": "payable",
      "type": "function"
    },
    {
      "inputs": [
        {
          "internalType": "uint256",
          "name": "index",
          "type": "uint256"
        }
      ],
      "name": "getEntry",
      "outputs": [
        {
          "internalType": "address",
          "name": "",
          "type": "address"
        }
      ],
      "stateMutability": "view",
      "type": "function"
    },
    {
      "inputs": [],
      "name": "lastDrawTime",
      "outputs": [
        {
          "internalType": "uint256",
          "name": "",
          "type": "uint256"
        }
      ],
      "stateMutability": "view",
      "type": "function"
    },
    {
      "inputs": [
        {
          "internalType": "uint256",
          "name": "",
          "type": "uint256"
        }
      ],
      "name": "managers",
      "outputs": [
        {
          "internalType": "address",
          "name": "",
          "type": "address"
        }
      ],
      "stateMutability": "view",
      "type": "function"
    },
    {
      "inputs": [],
      "name": "owner",
      "outputs": [
        {
          "internalType": "address payable",
          "name": "",
          "type": "address"
        }
      ],
      "stateMutability": "view",
      "type": "function"
    },
    {
      "inputs": [],
      "name": "pricePool",
      "outputs": [
        {
          "internalType": "uint256",
          "name": "",
          "type": "uint256"
        }
      ],
      "stateMutability": "view",
      "type": "function"
    },
    {
      "inputs": [
        {
          "internalType": "bool",
          "name": "firstManager",
          "type": "bool"
        },
        {
          "internalType": "address",
          "name": "newMaanagerAddress",
          "type": "address"
        }
      ],
      "name": "setManager",
      "outputs": [],
      "stateMutability": "nonpayable",
      "type": "function"
    },
    {
      "inputs": [
        {
          "internalType": "uint256",
          "name": "_ticketPrice",
          "type": "uint256"
        }
      ],
      "name": "setTicketPrice",
      "outputs": [],
      "stateMutability": "nonpayable",
      "type": "function"
    },
    {
      "inputs": [],
      "name": "ticketPrice",
      "outputs": [
        {
          "internalType": "uint256",
          "name": "",
          "type": "uint256"
        }
      ],
      "stateMutability": "view",
      "type": "function"
    },
    {
      "inputs": [],
      "name": "totalEntries",
      "outputs": [
        {
          "internalType": "uint256",
          "name": "",
          "type": "uint256"
        }
      ],
      "stateMutability": "view",
      "type": "function"
    }
  ],
  "bytecode": "0x60806040526000600455604051620000179062000147565b604051809103906000f08015801562000034573d6000803e3d6000fd5b50600560006101000a81548173ffffffffffffffffffffffffffffffffffffffff021916908373ffffffffffffffffffffffffffffffffffffffff1602179055503480156200008257600080fd5b5060405162001c6238038062001c628339818101604052810190620000a891906200016c565b336000806101000a81548173ffffffffffffffffffffffffffffffffffffffff021916908373ffffffffffffffffffffffffffffffffffffffff16021790555080600160006101000a81548173ffffffffffffffffffffffffffffffffffffffff021916908373ffffffffffffffffffffffffffffffffffffffff16021790555068015af1d78b58c400006006819055504260088190555050620001fa565b6102ff806200196383390190565b6000815190506200016681620001e0565b92915050565b6000602082840312156200017f57600080fd5b60006200018f8482850162000155565b91505092915050565b6000620001a582620001c0565b9050919050565b6000620001b98262000198565b9050919050565b600073ffffffffffffffffffffffffffffffffffffffff82169050919050565b620001eb81620001ac565b8114620001f757600080fd5b50565b611759806200020a6000396000f3fe6080604052600436106100a75760003560e01c8063729274521161006457806372927452146101aa5780637fef036e146101d55780638da5cb5b14610200578063a59f3e0c1461022b578063bae78d7b14610247578063d37c076214610284576100a7565b80630eecae21146100ac5780631209b1f6146100c357806315981650146100ee5780633d39c2601461011757806356b95e88146101545780635cbbd6351461017f575b600080fd5b3480156100b857600080fd5b506100c16102ad565b005b3480156100cf57600080fd5b506100d8610703565b6040516100e5919061107c565b60405180910390f35b3480156100fa57600080fd5b5061011560048036038101906101109190610dc3565b610709565b005b34801561012357600080fd5b5061013e60048036038101906101399190610dc3565b6107b4565b60405161014b9190610f2b565b60405180910390f35b34801561016057600080fd5b506101696107ea565b604051610176919061107c565b60405180910390f35b34801561018b57600080fd5b506101946107f0565b6040516101a1919061107c565b60405180910390f35b3480156101b657600080fd5b506101bf6107f6565b6040516101cc9190610fc1565b60405180910390f35b3480156101e157600080fd5b506101ea61081c565b6040516101f7919061107c565b60405180910390f35b34801561020c57600080fd5b50610215610822565b6040516102229190610f46565b60405180910390f35b61024560048036038101906102409190610dc3565b610846565b005b34801561025357600080fd5b5061026e60048036038101906102699190610dc3565b610a40565b60405161027b9190610f2b565b60405180910390f35b34801561029057600080fd5b506102ab60048036038101906102a69190610d87565b610af4565b005b4261012c6008546102be91906110d1565b106102fe576040517f08c379a00000000000000000000000000000000000000000000000000000000081526004016102f59061101c565b60405180910390fd5b60008054906101000a900473ffffffffffffffffffffffffffffffffffffffff1673ffffffffffffffffffffffffffffffffffffffff163373ffffffffffffffffffffffffffffffffffffffff1614806103df57503373ffffffffffffffffffffffffffffffffffffffff1660026000600281106103a5577f4e487b7100000000000000000000000000000000000000000000000000000000600052603260045260246000fd5b0160009054906101000a900473ffffffffffffffffffffffffffffffffffffffff1673ffffffffffffffffffffffffffffffffffffffff16145b8061047157503373ffffffffffffffffffffffffffffffffffffffff166002600160028110610437577f4e487b7100000000000000000000000000000000000000000000000000000000600052603260045260246000fd5b0160009054906101000a900473ffffffffffffffffffffffffffffffffffffffff1673ffffffffffffffffffffffffffffffffffffffff16145b6104b0576040517f08c379a00000000000000000000000000000000000000000000000000000000081526004016104a79061105c565b60405180910390fd5b6000600454116104f5576040517f08c379a00000000000000000000000000000000000000000000000000000000081526004016104ec90610ffc565b60405180910390fd5b6000600454610502610c88565b61050c9190611283565b90506000600560009054906101000a900473ffffffffffffffffffffffffffffffffffffffff1673ffffffffffffffffffffffffffffffffffffffff16639507d39a836040518263ffffffff1660e01b815260040161056b919061107c565b60206040518083038186803b15801561058357600080fd5b505afa158015610597573d6000803e3d6000fd5b505050506040513d601f19601f820116820180604052508101906105bb9190610d35565b90506040516105c990610cbf565b604051809103906000f0801580156105e5573d6000803e3d6000fd5b50600560006101000a81548173ffffffffffffffffffffffffffffffffffffffff021916908373ffffffffffffffffffffffffffffffffffffffff16021790555042600881905550600160009054906101000a900473ffffffffffffffffffffffffffffffffffffffff1673ffffffffffffffffffffffffffffffffffffffff1663a9059cbb826064605f60075461067d9190611158565b6106879190611127565b6040518363ffffffff1660e01b81526004016106a4929190610f98565b602060405180830381600087803b1580156106be57600080fd5b505af11580156106d2573d6000803e3d6000fd5b505050506040513d601f19601f820116820180604052508101906106f69190610d5e565b5060006007819055505050565b60065481565b60008054906101000a900473ffffffffffffffffffffffffffffffffffffffff1673ffffffffffffffffffffffffffffffffffffffff163373ffffffffffffffffffffffffffffffffffffffff1614610797576040517f08c379a000000000000000000000000000000000000000000000000000000000815260040161078e9061103c565b60405180910390fd5b670de0b6b3a7640000816107ab9190611158565b60068190555050565b600281600281106107c457600080fd5b016000915054906101000a900473ffffffffffffffffffffffffffffffffffffffff1681565b60075481565b60085481565b600160009054906101000a900473ffffffffffffffffffffffffffffffffffffffff1681565b60045481565b60008054906101000a900473ffffffffffffffffffffffffffffffffffffffff1681565b60008111610889576040517f08c379a000000000000000000000000000000000000000000000000000000000815260040161088090610fdc565b60405180910390fd5b600160009054906101000a900473ffffffffffffffffffffffffffffffffffffffff1673ffffffffffffffffffffffffffffffffffffffff166323b872dd3330846006546108d79190611158565b6040518463ffffffff1660e01b81526004016108f593929190610f61565b602060405180830381600087803b15801561090f57600080fd5b505af1158015610923573d6000803e3d6000fd5b505050506040513d601f19601f820116820180604052508101906109479190610d5e565b50806006546109569190611158565b60075461096391906110d1565b600781905550600060045490505b8160045461097f91906110d1565b811015610a2857600560009054906101000a900473ffffffffffffffffffffffffffffffffffffffff1673ffffffffffffffffffffffffffffffffffffffff16632f30c6f682336040518363ffffffff1660e01b81526004016109e3929190611097565b600060405180830381600087803b1580156109fd57600080fd5b505af1158015610a11573d6000803e3d6000fd5b505050508080610a2090611230565b915050610971565b5080600454610a3791906110d1565b60048190555050565b6000600560009054906101000a900473ffffffffffffffffffffffffffffffffffffffff1673ffffffffffffffffffffffffffffffffffffffff16639507d39a836040518263ffffffff1660e01b8152600401610a9d919061107c565b60206040518083038186803b158015610ab557600080fd5b505afa158015610ac9573d6000803e3d6000fd5b505050506040513d601f19601f82011682018060405250810190610aed9190610d35565b9050919050565b60008054906101000a900473ffffffffffffffffffffffffffffffffffffffff1673ffffffffffffffffffffffffffffffffffffffff163373ffffffffffffffffffffffffffffffffffffffff1614610b82576040517f08c379a0000000000000000000000000000000000000000000000000000000008152600401610b799061103c565b60405180910390fd5b8115610c0857806002600060028110610bc4577f4e487b7100000000000000000000000000000000000000000000000000000000600052603260045260246000fd5b0160006101000a81548173ffffffffffffffffffffffffffffffffffffffff021916908373ffffffffffffffffffffffffffffffffffffffff160217905550610c84565b806002600160028110610c44577f4e487b7100000000000000000000000000000000000000000000000000000000600052603260045260246000fd5b0160006101000a81548173ffffffffffffffffffffffffffffffffffffffff021916908373ffffffffffffffffffffffffffffffffffffffff1602179055505b5050565b60004442600454604051602001610ca193929190610eee565b6040516020818303038152906040528051906020012060001c905090565b6102ff8061142583390190565b600081359050610cdb816113df565b92915050565b600081519050610cf0816113df565b92915050565b600081359050610d05816113f6565b92915050565b600081519050610d1a816113f6565b92915050565b600081359050610d2f8161140d565b92915050565b600060208284031215610d4757600080fd5b6000610d5584828501610ce1565b91505092915050565b600060208284031215610d7057600080fd5b6000610d7e84828501610d0b565b91505092915050565b60008060408385031215610d9a57600080fd5b6000610da885828601610cf6565b9250506020610db985828601610ccc565b9150509250929050565b600060208284031215610dd557600080fd5b6000610de384828501610d20565b91505092915050565b610df5816111c4565b82525050565b610e04816111b2565b82525050565b610e138161120c565b82525050565b6000610e26601a836110c0565b9150610e3182611312565b602082019050919050565b6000610e49600e836110c0565b9150610e548261133b565b602082019050919050565b6000610e6c6016836110c0565b9150610e7782611364565b602082019050919050565b6000610e8f6014836110c0565b9150610e9a8261138d565b602082019050919050565b6000610eb26015836110c0565b9150610ebd826113b6565b602082019050919050565b610ed181611202565b82525050565b610ee8610ee382611202565b611279565b82525050565b6000610efa8286610ed7565b602082019150610f0a8285610ed7565b602082019150610f1a8284610ed7565b602082019150819050949350505050565b6000602082019050610f406000830184610dfb565b92915050565b6000602082019050610f5b6000830184610dec565b92915050565b6000606082019050610f766000830186610dfb565b610f836020830185610dfb565b610f906040830184610ec8565b949350505050565b6000604082019050610fad6000830185610dfb565b610fba6020830184610ec8565b9392505050565b6000602082019050610fd66000830184610e0a565b92915050565b60006020820190508181036000830152610ff581610e19565b9050919050565b6000602082019050818103600083015261101581610e3c565b9050919050565b6000602082019050818103600083015261103581610e5f565b9050919050565b6000602082019050818103600083015261105581610e82565b9050919050565b6000602082019050818103600083015261107581610ea5565b9050919050565b60006020820190506110916000830184610ec8565b92915050565b60006040820190506110ac6000830185610ec8565b6110b96020830184610dfb565b9392505050565b600082825260208201905092915050565b60006110dc82611202565b91506110e783611202565b9250827fffffffffffffffffffffffffffffffffffffffffffffffffffffffffffffffff0382111561111c5761111b6112b4565b5b828201905092915050565b600061113282611202565b915061113d83611202565b92508261114d5761114c6112e3565b5b828204905092915050565b600061116382611202565b915061116e83611202565b9250817fffffffffffffffffffffffffffffffffffffffffffffffffffffffffffffffff04831182151516156111a7576111a66112b4565b5b828202905092915050565b60006111bd826111e2565b9050919050565b60006111cf826111e2565b9050919050565b60008115159050919050565b600073ffffffffffffffffffffffffffffffffffffffff82169050919050565b6000819050919050565b60006112178261121e565b9050919050565b6000611229826111e2565b9050919050565b600061123b82611202565b91507fffffffffffffffffffffffffffffffffffffffffffffffffffffffffffffffff82141561126e5761126d6112b4565b5b600182019050919050565b6000819050919050565b600061128e82611202565b915061129983611202565b9250826112a9576112a86112e3565b5b828206905092915050565b7f4e487b7100000000000000000000000000000000000000000000000000000000600052601160045260246000fd5b7f4e487b7100000000000000000000000000000000000000000000000000000000600052601260045260246000fd5b7f4d7573742062792061746c65617374206f6e652074696b65742e000000000000600082015250565b7f4e6f206f6e6520656e7465726564000000000000000000000000000000000000600082015250565b7f35206d696e757465732068617320746f20706173732e00000000000000000000600082015250565b7f53656e646572206973206e6f74206f776e65722e000000000000000000000000600082015250565b7f53656e646572206973206e6f74206d616e616765720000000000000000000000600082015250565b6113e8816111b2565b81146113f357600080fd5b50565b6113ff816111d6565b811461140a57600080fd5b50565b61141681611202565b811461142157600080fd5b5056fe608060405234801561001057600080fd5b506102df806100206000396000f3fe608060405234801561001057600080fd5b50600436106100415760003560e01c80632f30c6f6146100465780639507d39a14610062578063b30906d414610092575b600080fd5b610060600480360381019061005b91906101d9565b6100c2565b005b61007c600480360381019061007791906101b0565b610117565b6040516100899190610224565b60405180910390f35b6100ac60048036038101906100a791906101b0565b610153565b6040516100b99190610224565b60405180910390f35b8060008084815260200190815260200160002060006101000a81548173ffffffffffffffffffffffffffffffffffffffff021916908373ffffffffffffffffffffffffffffffffffffffff1602179055505050565b600080600083815260200190815260200160002060009054906101000a900473ffffffffffffffffffffffffffffffffffffffff169050919050565b60006020528060005260406000206000915054906101000a900473ffffffffffffffffffffffffffffffffffffffff1681565b6000813590506101958161027b565b92915050565b6000813590506101aa81610292565b92915050565b6000602082840312156101c257600080fd5b60006101d08482850161019b565b91505092915050565b600080604083850312156101ec57600080fd5b60006101fa8582860161019b565b925050602061020b85828601610186565b9150509250929050565b61021e8161023f565b82525050565b60006020820190506102396000830184610215565b92915050565b600061024a82610251565b9050919050565b600073ffffffffffffffffffffffffffffffffffffffff82169050919050565b6000819050919050565b6102848161023f565b811461028f57600080fd5b50565b61029b81610271565b81146102a657600080fd5b5056fea2646970667358221220b0ba154b7ae8be8c769e31d77769afdeed684c760e25f8fedd159e9f0e4b94ad64736f6c63430008020033a26469706673582212209ff8958b77df47a8db6964920a1f275340b16556e67f08cd11e93e59196252c264736f6c63430008020033608060405234801561001057600080fd5b506102df806100206000396000f3fe608060405234801561001057600080fd5b50600436106100415760003560e01c80632f30c6f6146100465780639507d39a14610062578063b30906d414610092575b600080fd5b610060600480360381019061005b91906101d9565b6100c2565b005b61007c600480360381019061007791906101b0565b610117565b6040516100899190610224565b60405180910390f35b6100ac60048036038101906100a791906101b0565b610153565b6040516100b99190610224565b60405180910390f35b8060008084815260200190815260200160002060006101000a81548173ffffffffffffffffffffffffffffffffffffffff021916908373ffffffffffffffffffffffffffffffffffffffff1602179055505050565b600080600083815260200190815260200160002060009054906101000a900473ffffffffffffffffffffffffffffffffffffffff169050919050565b60006020528060005260406000206000915054906101000a900473ffffffffffffffffffffffffffffffffffffffff1681565b6000813590506101958161027b565b92915050565b6000813590506101aa81610292565b92915050565b6000602082840312156101c257600080fd5b60006101d08482850161019b565b91505092915050565b600080604083850312156101ec57600080fd5b60006101fa8582860161019b565b925050602061020b85828601610186565b9150509250929050565b61021e8161023f565b82525050565b60006020820190506102396000830184610215565b92915050565b600061024a82610251565b9050919050565b600073ffffffffffffffffffffffffffffffffffffffff82169050919050565b6000819050919050565b6102848161023f565b811461028f57600080fd5b50565b61029b81610271565b81146102a657600080fd5b5056fea2646970667358221220b0ba154b7ae8be8c769e31d77769afdeed684c760e25f8fedd159e9f0e4b94ad64736f6c63430008020033",
  "linkReferences": {},
  "deployedLinkReferences": {}
}